{
  "_format": "hh-sol-artifact-1",
  "contractName": "Social",
  "sourceName": "contracts/Social.sol",
  "abi": [
    {
      "inputs": [],
      "stateMutability": "nonpayable",
      "type": "constructor"
    },
    {
      "inputs": [
        {
          "internalType": "address",
          "name": "owner",
          "type": "address"
        }
      ],
      "name": "OwnableInvalidOwner",
      "type": "error"
    },
    {
      "inputs": [
        {
          "internalType": "address",
          "name": "account",
          "type": "address"
        }
      ],
      "name": "OwnableUnauthorizedAccount",
      "type": "error"
    },
    {
      "inputs": [],
      "name": "SlugNameAlreadyExist",
      "type": "error"
    },
    {
      "anonymous": false,
      "inputs": [
        {
          "indexed": true,
          "internalType": "string",
          "name": "_slug",
          "type": "string"
        },
        {
          "indexed": false,
          "internalType": "string",
          "name": "name",
          "type": "string"
        }
      ],
      "name": "Create",
      "type": "event"
    },
    {
      "anonymous": false,
      "inputs": [
        {
          "indexed": true,
          "internalType": "address",
          "name": "previousOwner",
          "type": "address"
        },
        {
          "indexed": true,
          "internalType": "address",
          "name": "newOwner",
          "type": "address"
        }
      ],
      "name": "OwnershipTransferred",
      "type": "event"
    },
    {
      "inputs": [
        {
          "internalType": "string",
          "name": "_name",
          "type": "string"
        },
        {
          "internalType": "string",
          "name": "_slug",
          "type": "string"
        },
        {
          "internalType": "address[]",
          "name": "_to",
          "type": "address[]"
        },
        {
          "internalType": "bytes32",
          "name": "_merkleRoot",
          "type": "bytes32"
        }
      ],
      "name": "create",
      "outputs": [],
      "stateMutability": "nonpayable",
      "type": "function"
    },
    {
      "inputs": [
        {
          "internalType": "string",
          "name": "_slug",
          "type": "string"
        }
      ],
      "name": "getProject",
      "outputs": [
        {
          "components": [
            {
              "internalType": "string",
              "name": "name",
              "type": "string"
            },
            {
              "internalType": "address",
              "name": "owner",
              "type": "address"
            },
            {
              "internalType": "address",
              "name": "account",
              "type": "address"
            },
            {
              "internalType": "address",
              "name": "network",
              "type": "address"
            },
            {
              "internalType": "address",
              "name": "messenger",
              "type": "address"
            },
            {
              "internalType": "address",
              "name": "profile",
              "type": "address"
            }
          ],
          "internalType": "struct Social.Project",
          "name": "",
          "type": "tuple"
        }
      ],
      "stateMutability": "view",
      "type": "function"
    },
    {
      "inputs": [
        {
          "internalType": "string",
          "name": "_slug",
          "type": "string"
        }
      ],
      "name": "getProjectName",
      "outputs": [
        {
          "internalType": "string",
          "name": "",
          "type": "string"
        }
      ],
      "stateMutability": "view",
      "type": "function"
    },
    {
      "inputs": [],
      "name": "owner",
      "outputs": [
        {
          "internalType": "address",
          "name": "",
          "type": "address"
        }
      ],
      "stateMutability": "view",
      "type": "function"
    },
    {
      "inputs": [],
      "name": "renounceOwnership",
      "outputs": [],
      "stateMutability": "nonpayable",
      "type": "function"
    },
    {
      "inputs": [
        {
          "internalType": "address",
          "name": "newOwner",
          "type": "address"
        }
      ],
      "name": "transferOwnership",
      "outputs": [],
      "stateMutability": "nonpayable",
      "type": "function"
    }
  ],
  "bytecode": "0x608060405234801561001057600080fd5b50338061003757604051631e4fbdf760e01b81526000600482015260240160405180910390fd5b61004081610046565b50610096565b600080546001600160a01b038381166001600160a01b0319831681178455604051919092169283917f8be0079c531659141344cd1fd0a4f28419497f9722a3daafe3b4186f6b6457e09190a35050565b61413f806100a56000396000f3fe60806040523480156200001157600080fd5b50600436106200007b5760003560e01c80638da5cb5b11620000565780638da5cb5b14620000e1578063e94f361714620000fd578063f2fde38b146200011457600080fd5b80633169439014620000805780634fa691e214620000af578063715018a614620000d5575b600080fd5b620000976200009136600462000785565b6200012b565b604051620000a6919062000850565b60405180910390f35b620000c6620000c036600462000785565b620001e9565b604051620000a691906200086c565b620000df6200032e565b005b6000546040516001600160a01b039091168152602001620000a6565b620000df6200010e36600462000988565b62000346565b620000df6200012536600462000a71565b62000647565b6060600183836040516200014192919062000a8f565b90815260405190819003602001902080546200015d9062000a9f565b80601f01602080910402602001604051908101604052809291908181526020018280546200018b9062000a9f565b8015620001dc5780601f10620001b057610100808354040283529160200191620001dc565b820191906000526020600020905b815481529060010190602001808311620001be57829003601f168201915b5050505050905092915050565b6040805160c08101825260608082526000602083018190528284018190529082018190526080820181905260a082015290516001906200022d908590859062000a8f565b90815260200160405180910390206040518060c0016040529081600082018054620002589062000a9f565b80601f0160208091040260200160405190810160405280929190818152602001828054620002869062000a9f565b8015620002d75780601f10620002ab57610100808354040283529160200191620002d7565b820191906000526020600020905b815481529060010190602001808311620002b957829003601f168201915b505050918352505060018201546001600160a01b03908116602083015260028301548116604083015260038301548116606083015260048301548116608083015260059092015490911660a0909101529392505050565b62000338620006a8565b620003446000620006f0565b565b60006001600160a01b031660018560405162000363919062000adb565b908152604051908190036020019020600201546001600160a01b031614620003b7576040517fa46939e100000000000000000000000000000000000000000000000000000000815260040160405180910390fd5b600080546001600160a01b031633858585604051620003d6906200074d565b620003e695949392919062000af9565b604051809103906000f08015801562000403573d6000803e3d6000fd5b50905060008160405162000417906200075b565b6001600160a01b039091168152602001604051809103906000f08015801562000444573d6000803e3d6000fd5b509050600082604051620004589062000769565b6001600160a01b039091168152602001604051809103906000f08015801562000485573d6000803e3d6000fd5b509050600033846040516200049a9062000777565b6001600160a01b03928316815291166020820152604001604051809103906000f080158015620004ce573d6000803e3d6000fd5b5090506040518060c001604052808a8152602001336001600160a01b03168152602001856001600160a01b03168152602001846001600160a01b03168152602001836001600160a01b03168152602001826001600160a01b03168152506001896040516200053d919062000adb565b908152604051908190036020019020815181906200055c908262000bc3565b50602082015160018201805473ffffffffffffffffffffffffffffffffffffffff199081166001600160a01b03938416179091556040808501516002850180548416918516919091179055606085015160038501805484169185169190911790556080850151600485018054841691851691909117905560a090940151600590930180549091169290911691909117905551620005fb90899062000adb565b60405180910390207f38a96ba387092b931e13d4f02777d232f7d6cf88561c47bf3cad801cfb46ec958a60405162000634919062000850565b60405180910390a2505050505050505050565b62000651620006a8565b6001600160a01b0381166200069a576040517f1e4fbdf7000000000000000000000000000000000000000000000000000000008152600060048201526024015b60405180910390fd5b620006a581620006f0565b50565b6000546001600160a01b0316331462000344576040517f118cdaa700000000000000000000000000000000000000000000000000000000815233600482015260240162000691565b600080546001600160a01b0383811673ffffffffffffffffffffffffffffffffffffffff19831681178455604051919092169283917f8be0079c531659141344cd1fd0a4f28419497f9722a3daafe3b4186f6b6457e09190a35050565b610b7e8062000c9183390190565b6114b3806200180f83390190565b61085c8062002cc283390190565b610bec806200351e83390190565b600080602083850312156200079957600080fd5b823567ffffffffffffffff80821115620007b257600080fd5b818501915085601f830112620007c757600080fd5b813581811115620007d757600080fd5b866020828501011115620007ea57600080fd5b60209290920196919550909350505050565b60005b8381101562000819578181015183820152602001620007ff565b50506000910152565b600081518084526200083c816020860160208601620007fc565b601f01601f19169290920160200192915050565b60208152600062000865602083018462000822565b9392505050565b602081526000825160c060208401526200088a60e084018262000822565b905060208401516001600160a01b0380821660408601528060408701511660608601528060608701511660808601528060808701511660a08601528060a08701511660c086015250508091505092915050565b634e487b7160e01b600052604160045260246000fd5b600082601f8301126200090557600080fd5b813567ffffffffffffffff80821115620009235762000923620008dd565b604051601f8301601f19908116603f011681019082821181831017156200094e576200094e620008dd565b816040528381528660208588010111156200096857600080fd5b836020870160208301376000602085830101528094505050505092915050565b600080600080600060808688031215620009a157600080fd5b853567ffffffffffffffff80821115620009ba57600080fd5b620009c889838a01620008f3565b96506020880135915080821115620009df57600080fd5b620009ed89838a01620008f3565b9550604088013591508082111562000a0457600080fd5b818801915088601f83011262000a1957600080fd5b81358181111562000a2957600080fd5b8960208260051b850101111562000a3f57600080fd5b96999598505060200195606001359392505050565b80356001600160a01b038116811462000a6c57600080fd5b919050565b60006020828403121562000a8457600080fd5b620008658262000a54565b8183823760009101908152919050565b600181811c9082168062000ab457607f821691505b60208210810362000ad557634e487b7160e01b600052602260045260246000fd5b50919050565b6000825162000aef818460208701620007fc565b9190910192915050565b6000608082016001600160a01b03808916845260208189166020860152608060408601528287845260a08601905088935060005b8881101562000b56578362000b428662000a54565b168252938201939082019060010162000b2d565b50809450505050508260608301529695505050505050565b601f82111562000bbe576000816000526020600020601f850160051c8101602086101562000b995750805b601f850160051c820191505b8181101562000bba5782815560010162000ba5565b5050505b505050565b815167ffffffffffffffff81111562000be05762000be0620008dd565b62000bf88162000bf1845462000a9f565b8462000b6e565b602080601f83116001811462000c30576000841562000c175750858301515b600019600386901b1c1916600185901b17855562000bba565b600085815260208120601f198616915b8281101562000c615788860151825594840194600190910190840162000c40565b508582101562000c805787850151600019600388901b60f8161c191681555b5050505050600190811b0190555056fe60806040523480156200001157600080fd5b5060405162000b7e38038062000b7e8339810160408190526200003491620001ef565b836001600160a01b0381166200006457604051631e4fbdf760e01b81526000600482015260240160405180910390fd5b6200006f8162000148565b50600180546001600160a01b0319166001600160a01b038516179055815162000099908262000198565b62000105600160046020527fabd6e7cb50984ff9c2f3e18a2660c3353dadf4e3291deeb275dae2cd1e44fe05805491151560ff19928316811790915560026000527f91da3fd0782e51c6b3986e9e672fd566868e71f3dbc2d6c2cd6fbb3e361af2a78054909216179055565b7f15603ba58569f9ef54fc6628c6a026ea6f3b5b3ca93ff52da07b5ce76201243482604051620001369190620002ef565b60405180910390a15050505062000366565b600080546001600160a01b038381166001600160a01b0319831681178455604051919092169283917f8be0079c531659141344cd1fd0a4f28419497f9722a3daafe3b4186f6b6457e09190a35050565b806002819055508160036000828254620001b391906200033e565b90915550505050565b80516001600160a01b0381168114620001d457600080fd5b919050565b634e487b7160e01b600052604160045260246000fd5b600080600080608085870312156200020657600080fd5b6200021185620001bc565b9350602062000222818701620001bc565b60408701519094506001600160401b03808211156200024057600080fd5b818801915088601f8301126200025557600080fd5b8151818111156200026a576200026a620001d9565b8060051b604051601f19603f83011681018181108582111715620002925762000292620001d9565b60405291825284820192508381018501918b831115620002b157600080fd5b938501935b82851015620002da57620002ca85620001bc565b84529385019392850192620002b6565b60609a909a0151989b979a5050505050505050565b6020808252825182820181905260009190848201906040850190845b81811015620003325783516001600160a01b0316835292840192918401916001016200030b565b50909695505050505050565b808201808211156200036057634e487b7160e01b600052601160045260246000fd5b92915050565b61080880620003766000396000f3fe608060405234801561001057600080fd5b50600436106100a35760003560e01c80638da5cb5b11610076578063ae88f7731161005b578063ae88f77314610125578063e2c7f13e14610148578063f2fde38b1461015b57600080fd5b80638da5cb5b1461010c5780638e7457e31461011d57600080fd5b80632eb4a7ab146100a8578063365b98b2146100c457806359433fae146100ef578063715018a614610104575b600080fd5b6100b160025481565b6040519081526020015b60405180910390f35b6100d76100d23660046105b0565b61016e565b6040516001600160a01b0390911681526020016100bb565b6101026100fd366004610615565b610198565b005b6101026102b1565b6000546001600160a01b03166100d7565b6101026102c5565b610138610133366004610661565b610337565b60405190151581526020016100bb565b61013861015636600461069e565b61037a565b6101026101693660046106f1565b61038f565b6005818154811061017e57600080fd5b6000918252602090912001546001600160a01b0316905081565b6001546001600160a01b031633146101dc576040517f4755657900000000000000000000000000000000000000000000000000000000815260040160405180910390fd5b6101e682826103eb565b60005b61ffff811683111561027357600584848361ffff1681811061020d5761020d61070c565b905060200201602081019061022291906106f1565b815460018101835560009283526020909220909101805473ffffffffffffffffffffffffffffffffffffffff19166001600160a01b039092169190911790558061026b81610738565b9150506101e9565b507f15603ba58569f9ef54fc6628c6a026ea6f3b5b3ca93ff52da07b5ce76201243460056040516102a49190610759565b60405180910390a1505050565b6102b961040d565b6102c36000610453565b565b6102cd61040d565b60046020527fabd6e7cb50984ff9c2f3e18a2660c3353dadf4e3291deeb275dae2cd1e44fe05805460ff1980821660ff9092161591821790925560026000527f91da3fd0782e51c6b3986e9e672fd566868e71f3dbc2d6c2cd6fbb3e361af2a78054909216179055565b60006004600083600381111561034f5761034f6107a9565b6003811115610360576103606107a9565b815260208101919091526040016000205460ff1692915050565b60006103878484846104b0565b949350505050565b61039761040d565b6001600160a01b0381166103df576040517f1e4fbdf7000000000000000000000000000000000000000000000000000000008152600060048201526024015b60405180910390fd5b6103e881610453565b50565b80600281905550816003600082825461040491906107bf565b90915550505050565b6000546001600160a01b031633146102c3576040517f118cdaa70000000000000000000000000000000000000000000000000000000081523360048201526024016103d6565b600080546001600160a01b0383811673ffffffffffffffffffffffffffffffffffffffff19831681178455604051919092169283917f8be0079c531659141344cd1fd0a4f28419497f9722a3daafe3b4186f6b6457e09190a35050565b6000610387838380806020026020016040519081016040528093929190818152602001838360200280828437600092019190915250506002546040516bffffffffffffffffffffffff1960608b901b1660208201529092506034019050604051602081830303815290604052805190602001206000826105308584610539565b14949350505050565b600081815b84518110156105745761056a8286838151811061055d5761055d61070c565b602002602001015161057e565b915060010161053e565b5090505b92915050565b600081831061059a5760008281526020849052604090206105a9565b60008381526020839052604090205b9392505050565b6000602082840312156105c257600080fd5b5035919050565b60008083601f8401126105db57600080fd5b50813567ffffffffffffffff8111156105f357600080fd5b6020830191508360208260051b850101111561060e57600080fd5b9250929050565b60008060006040848603121561062a57600080fd5b833567ffffffffffffffff81111561064157600080fd5b61064d868287016105c9565b909790965060209590950135949350505050565b60006020828403121561067357600080fd5b8135600481106105a957600080fd5b80356001600160a01b038116811461069957600080fd5b919050565b6000806000604084860312156106b357600080fd5b6106bc84610682565b9250602084013567ffffffffffffffff8111156106d857600080fd5b6106e4868287016105c9565b9497909650939450505050565b60006020828403121561070357600080fd5b6105a982610682565b634e487b7160e01b600052603260045260246000fd5b634e487b7160e01b600052601160045260246000fd5b600061ffff80831681810361074f5761074f610722565b6001019392505050565b6020808252825482820181905260008481528281209092916040850190845b8181101561079d5783546001600160a01b031683526001938401939285019201610778565b50909695505050505050565b634e487b7160e01b600052602160045260246000fd5b808201808211156105785761057861072256fea2646970667358221220400fe2e193751c3e3e08ff1e82c6fe00486d0f8e2c4f8a8073c81543cfbd637c64736f6c63430008160033608060405234801561001057600080fd5b506040516114b33803806114b383398101604081905261002f9161005b565b600080546001600160a01b039092166001600160a81b031990921691909117600160a01b17905561008b565b60006020828403121561006d57600080fd5b81516001600160a01b038116811461008457600080fd5b9392505050565b6114198061009a6000396000f3fe608060405234801561001057600080fd5b50600436106100d45760003560e01c8063b9cfb9ce11610081578063f2c1504f1161005b578063f2c1504f146101b7578063f842a7f9146101ca578063f94cac5c146101dd57600080fd5b8063b9cfb9ce14610162578063e230a12e14610181578063e506bef51461019457600080fd5b806365c1277d116100b257806365c1277d1461011457806378be30651461012757806384cb531a1461013a57600080fd5b806306847759146100d95780634c037e7b146100ee578063541f6ade14610101575b600080fd5b6100ec6100e7366004611214565b6101f0565b005b6100ec6100fc366004611214565b61032c565b6100ec61010f366004611214565b610461565b6100ec61012236600461127c565b610596565b6100ec610135366004611214565b6106cb565b61014d6101483660046112b6565b610800565b60405190151581526020015b60405180910390f35b336000908152600160205260409020545b604051908152602001610159565b61017361018f36600461127c565b61086e565b6101736101a23660046112d8565b60026020526000908152604090206001015481565b6100ec6101c5366004611214565b6109be565b61014d6101d83660046112d8565b610af3565b6100ec6101eb36600461127c565b610b45565b60005460405163ae88f77360e01b81526001600160a01b0382169163ae88f7739161022891600160a01b900460ff16906004016112f1565b602060405180830381865afa158015610245573d6000803e3d6000fd5b505050506040513d601f19601f820116820180604052508101906102699190611319565b610286576040516387d400b960e01b815260040160405180910390fd5b600054604051637163f89f60e11b8152839183916001600160a01b039091169063e2c7f13e906102be9033908690869060040161133b565b602060405180830381865afa1580156102db573d6000803e3d6000fd5b505050506040513d601f19601f820116820180604052508101906102ff9190611319565b61031c57604051639b3a19e960e01b815260040160405180910390fd5b61032585610c7a565b5050505050565b60005460405163ae88f77360e01b81526001600160a01b0382169163ae88f7739161036491600160a01b900460ff16906004016112f1565b602060405180830381865afa158015610381573d6000803e3d6000fd5b505050506040513d601f19601f820116820180604052508101906103a59190611319565b6103c2576040516387d400b960e01b815260040160405180910390fd5b600054604051637163f89f60e11b8152839183916001600160a01b039091169063e2c7f13e906103fa9033908690869060040161133b565b602060405180830381865afa158015610417573d6000803e3d6000fd5b505050506040513d601f19601f8201168201806040525081019061043b9190611319565b61045857604051639b3a19e960e01b815260040160405180910390fd5b61032585610d5e565b60005460405163ae88f77360e01b81526001600160a01b0382169163ae88f7739161049991600160a01b900460ff16906004016112f1565b602060405180830381865afa1580156104b6573d6000803e3d6000fd5b505050506040513d601f19601f820116820180604052508101906104da9190611319565b6104f7576040516387d400b960e01b815260040160405180910390fd5b600054604051637163f89f60e11b8152839183916001600160a01b039091169063e2c7f13e9061052f9033908690869060040161133b565b602060405180830381865afa15801561054c573d6000803e3d6000fd5b505050506040513d601f19601f820116820180604052508101906105709190611319565b61058d57604051639b3a19e960e01b815260040160405180910390fd5b61032585610d9b565b60005460405163ae88f77360e01b81526001600160a01b0382169163ae88f773916105ce91600160a01b900460ff16906004016112f1565b602060405180830381865afa1580156105eb573d6000803e3d6000fd5b505050506040513d601f19601f8201168201806040525081019061060f9190611319565b61062c576040516387d400b960e01b815260040160405180910390fd5b600054604051637163f89f60e11b8152839183916001600160a01b039091169063e2c7f13e906106649033908690869060040161133b565b602060405180830381865afa158015610681573d6000803e3d6000fd5b505050506040513d601f19601f820116820180604052508101906106a59190611319565b6106c257604051639b3a19e960e01b815260040160405180910390fd5b61032585610e5e565b60005460405163ae88f77360e01b81526001600160a01b0382169163ae88f7739161070391600160a01b900460ff16906004016112f1565b602060405180830381865afa158015610720573d6000803e3d6000fd5b505050506040513d601f19601f820116820180604052508101906107449190611319565b610761576040516387d400b960e01b815260040160405180910390fd5b600054604051637163f89f60e11b8152839183916001600160a01b039091169063e2c7f13e906107999033908690869060040161133b565b602060405180830381865afa1580156107b6573d6000803e3d6000fd5b505050506040513d601f19601f820116820180604052508101906107da9190611319565b6107f757604051639b3a19e960e01b815260040160405180910390fd5b61032585610f4a565b600060036000610854846040516bffffffffffffffffffffffff1933606090811b8216602084015283901b166034820152600090604801604051602081830303815290604052805190602001209050919050565b815260208101919091526040016000205460ff1692915050565b6000805460405163ae88f77360e01b81526001600160a01b0382169163ae88f773916108a791600160a01b900460ff16906004016112f1565b602060405180830381865afa1580156108c4573d6000803e3d6000fd5b505050506040513d601f19601f820116820180604052508101906108e89190611319565b610905576040516387d400b960e01b815260040160405180910390fd5b600054604051637163f89f60e11b8152849184916001600160a01b039091169063e2c7f13e9061093d9033908690869060040161133b565b602060405180830381865afa15801561095a573d6000803e3d6000fd5b505050506040513d601f19601f8201168201806040525081019061097e9190611319565b61099b57604051639b3a19e960e01b815260040160405180910390fd5b6001600160a01b0386166000908152600160205260409020549695505050505050565b60005460405163ae88f77360e01b81526001600160a01b0382169163ae88f773916109f691600160a01b900460ff16906004016112f1565b602060405180830381865afa158015610a13573d6000803e3d6000fd5b505050506040513d601f19601f82011682018060405250810190610a379190611319565b610a54576040516387d400b960e01b815260040160405180910390fd5b600054604051637163f89f60e11b8152839183916001600160a01b039091169063e2c7f13e90610a8c9033908690869060040161133b565b602060405180830381865afa158015610aa9573d6000803e3d6000fd5b505050506040513d601f19601f82011682018060405250810190610acd9190611319565b610aea57604051639b3a19e960e01b815260040160405180910390fd5b6103258561100f565b60006004600061085433856040516bffffffffffffffffffffffff19606084901b1660208201526034810182905260009060540160405160208183030381529060405280519060200120905092915050565b60005460405163ae88f77360e01b81526001600160a01b0382169163ae88f77391610b7d91600160a01b900460ff16906004016112f1565b602060405180830381865afa158015610b9a573d6000803e3d6000fd5b505050506040513d601f19601f82011682018060405250810190610bbe9190611319565b610bdb576040516387d400b960e01b815260040160405180910390fd5b600054604051637163f89f60e11b8152839183916001600160a01b039091169063e2c7f13e90610c139033908690869060040161133b565b602060405180830381865afa158015610c30573d6000803e3d6000fd5b505050506040513d601f19601f82011682018060405250810190610c549190611319565b610c7157604051639b3a19e960e01b815260040160405180910390fd5b610325856110d8565b80610c8481610af3565b15610cbb576040517f2877f77b00000000000000000000000000000000000000000000000000000000815260040160405180910390fd5b600160046000610d0d33866040516bffffffffffffffffffffffff19606084901b1660208201526034810182905260009060540160405160208183030381529060405280519060200120905092915050565b8152602081019190915260409081016000908120805460ff19169315159390931790925551339184917f0906f7e0f070699d64433e9f3259a964fa67fc7c4cf258f579ce408d5143228b9190a35050565b33600081815260016020526040808220849055518392917fd59f80e0dd5a6f38729b326e0cdc8b14c1f4e85ab0c642784be1f6dc03491ac891a350565b6000818152600260209081526040808320338452909152902054819060ff16610df0576040517fa5d132f700000000000000000000000000000000000000000000000000000000815260040160405180910390fd5b6000828152600260208181526040808420338552808352908420805460ff191690558584529190526001018054909190610e29906113b3565b90915550604051339083907f31e90b8de89e15dee9a636ce1ac812809a8416fd6f009d65ec068a91fa7a5bbc90600090a35050565b80610e6881610800565b610e9e576040517f60aacb1700000000000000000000000000000000000000000000000000000000815260040160405180910390fd5b60036000610ef0846040516bffffffffffffffffffffffff1933606090811b8216602084015283901b166034820152600090604801604051602081830303815290604052805190602001209050919050565b81526020808201929092526040908101600020805460ff19169055516001600160a01b038416815233917f25b48012798806863072289354ed0b3849b73152482d9c6694e5cbb35f38d5e391015b60405180910390a25050565b80610f5481610af3565b610f8a576040517fe68cf57d00000000000000000000000000000000000000000000000000000000815260040160405180910390fd5b6040805133606081901b6bffffffffffffffffffffffff1916602080840191909152603480840187905284518085039091018152605490930180855283519382019390932060009081526004909152928320805460ff191690559184917f1c2ffe66a540aaa393f91ea761ec63a003f19b97edfd1c7705cb455a695d8ea19190a35050565b6000818152600260209081526040808320338452909152902054819060ff1615611065576040517f22aba90d00000000000000000000000000000000000000000000000000000000815260040160405180910390fd5b6000828152600260208181526040808420338552808352908420805460ff19166001908117909155868552929091520180549091906110a3906113ca565b90915550604051339083907f5dfc37bd4eb2a27e5ca58365a961dd4dc9a071a49837c9c4ecdb7013cfc1453490600090a35050565b806110e281610800565b15611119576040517f76f1b26800000000000000000000000000000000000000000000000000000000815260040160405180910390fd5b60016003600061116d856040516bffffffffffffffffffffffff1933606090811b8216602084015283901b166034820152600090604801604051602081830303815290604052805190602001209050919050565b81526020808201929092526040908101600020805460ff19169315159390931790925590516001600160a01b038416815233917f6178e95c138f06036cdc07a49ed6a3d23008969fa143baeceb037ebae22e8d149101610f3e565b60008083601f8401126111da57600080fd5b50813567ffffffffffffffff8111156111f257600080fd5b6020830191508360208260051b850101111561120d57600080fd5b9250929050565b60008060006040848603121561122957600080fd5b83359250602084013567ffffffffffffffff81111561124757600080fd5b611253868287016111c8565b9497909650939450505050565b80356001600160a01b038116811461127757600080fd5b919050565b60008060006040848603121561129157600080fd5b61129a84611260565b9250602084013567ffffffffffffffff81111561124757600080fd5b6000602082840312156112c857600080fd5b6112d182611260565b9392505050565b6000602082840312156112ea57600080fd5b5035919050565b602081016004831061131357634e487b7160e01b600052602160045260246000fd5b91905290565b60006020828403121561132b57600080fd5b815180151581146112d157600080fd5b6001600160a01b03841681526040602082015281604082015260007f07ffffffffffffffffffffffffffffffffffffffffffffffffffffffffffffff83111561138357600080fd5b8260051b8085606085013791909101606001949350505050565b634e487b7160e01b600052601160045260246000fd5b6000816113c2576113c261139d565b506000190190565b6000600182016113dc576113dc61139d565b506001019056fea26469706673582212209e40dbcd93d791807d9186849031df7f4ee4b0509fb118a3e8608ad132c1f40a64736f6c63430008160033608060405234801561001057600080fd5b5060405161085c38038061085c83398101604081905261002f9161005b565b600080546001600160a01b039092166001600160a81b031990921691909117600160a11b17905561008b565b60006020828403121561006d57600080fd5b81516001600160a01b038116811461008457600080fd5b9392505050565b6107c28061009a6000396000f3fe608060405234801561001057600080fd5b50600436106100415760003560e01c80633d201d5d14610046578063924133921461005b578063bb679a701461006e575b600080fd5b610059610054366004610613565b610093565b005b61005961006936600461066d565b61022e565b61008161007c36600461066d565b6103c0565b60405190815260200160405180910390f35b60005460405163ae88f77360e01b81526001600160a01b0382169163ae88f773916100cb91600160a01b900460ff16906004016106c0565b602060405180830381865afa1580156100e8573d6000803e3d6000fd5b505050506040513d601f19601f8201168201806040525081019061010c9190610701565b610129576040516387d400b960e01b815260040160405180910390fd5b600054604051637163f89f60e11b8152839183916001600160a01b039091169063e2c7f13e906101619033908690869060040161072a565b602060405180830381865afa15801561017e573d6000803e3d6000fd5b505050506040513d601f19601f820116820180604052508101906101a29190610701565b6101bf57604051639b3a19e960e01b815260040160405180910390fd5b60006101ca86610514565b60008181526001602052604090819020899055519091506001600160a01b0387169033907f2bbcb396af4d1118e7ceb24e400f1d62b8d500484429ce069853ad432096d5d59061021d908b815260200190565b60405180910390a350505050505050565b60005460405163ae88f77360e01b81526001600160a01b0382169163ae88f7739161026691600160a01b900460ff16906004016106c0565b602060405180830381865afa158015610283573d6000803e3d6000fd5b505050506040513d601f19601f820116820180604052508101906102a79190610701565b6102c4576040516387d400b960e01b815260040160405180910390fd5b600054604051637163f89f60e11b8152839183916001600160a01b039091169063e2c7f13e906102fc9033908690869060040161072a565b602060405180830381865afa158015610319573d6000803e3d6000fd5b505050506040513d601f19601f8201168201806040525081019061033d9190610701565b61035a57604051639b3a19e960e01b815260040160405180910390fd5b6001600061036787610514565b815260200190815260200160002060009055846001600160a01b0316336001600160a01b03167fa38c9436e1923c463704b99a2b3f4c9cb570fc1b03829c30a45f444d24f4807460405160405180910390a35050505050565b6000805460405163ae88f77360e01b81526001600160a01b0382169163ae88f773916103f991600160a01b900460ff16906004016106c0565b602060405180830381865afa158015610416573d6000803e3d6000fd5b505050506040513d601f19601f8201168201806040525081019061043a9190610701565b610457576040516387d400b960e01b815260040160405180910390fd5b600054604051637163f89f60e11b8152849184916001600160a01b039091169063e2c7f13e9061048f9033908690869060040161072a565b602060405180830381865afa1580156104ac573d6000803e3d6000fd5b505050506040513d601f19601f820116820180604052508101906104d09190610701565b6104ed57604051639b3a19e960e01b815260040160405180910390fd5b600160006104fa88610514565b815260200190815260200160002054925050509392505050565b6000336001600160a01b03831610610564576040516bffffffffffffffffffffffff1933606090811b8216602084015284901b16603482015260480160405160208183030381529060405261059d565b6040516bffffffffffffffffffffffff19606084811b8216602084015233901b1660348201526048016040516020818303038152906040525b805190602001209050919050565b80356001600160a01b03811681146105c257600080fd5b919050565b60008083601f8401126105d957600080fd5b50813567ffffffffffffffff8111156105f157600080fd5b6020830191508360208260051b850101111561060c57600080fd5b9250929050565b6000806000806060858703121561062957600080fd5b84359350610639602086016105ab565b9250604085013567ffffffffffffffff81111561065557600080fd5b610661878288016105c7565b95989497509550505050565b60008060006040848603121561068257600080fd5b61068b846105ab565b9250602084013567ffffffffffffffff8111156106a757600080fd5b6106b3868287016105c7565b9497909650939450505050565b60208101600483106106fb577f4e487b7100000000000000000000000000000000000000000000000000000000600052602160045260246000fd5b91905290565b60006020828403121561071357600080fd5b8151801515811461072357600080fd5b9392505050565b6001600160a01b03841681526040602082015281604082015260007f07ffffffffffffffffffffffffffffffffffffffffffffffffffffffffffffff83111561077257600080fd5b8260051b808560608501379190910160600194935050505056fea2646970667358221220971cdd1de7321414e727b90ab99e7dacdd0a2f8c1d81bd5bd20ea597aa35ca8e64736f6c63430008160033608060405234801561001057600080fd5b50604051610bec380380610bec83398101604081905261002f916100fe565b600080546001600160a01b038084166001600160a81b031990921691909117600360a01b179091558290811661007f57604051631e4fbdf760e01b81526000600482015260240160405180910390fd5b61008881610090565b505050610131565b600180546001600160a01b038381166001600160a01b0319831681179093556040519116919082907f8be0079c531659141344cd1fd0a4f28419497f9722a3daafe3b4186f6b6457e090600090a35050565b80516001600160a01b03811681146100f957600080fd5b919050565b6000806040838503121561011157600080fd5b61011a836100e2565b9150610128602084016100e2565b90509250929050565b610aac806101406000396000f3fe608060405234801561001057600080fd5b506004361061007d5760003560e01c80637765eba11161005b5780637765eba1146100bd5780638da5cb5b146100d057806390b02fb4146100eb578063f2fde38b146100fe57600080fd5b806321527e50146100825780634b66adc1146100a0578063715018a6146100b5575b600080fd5b61008a610111565b6040516100979190610633565b60405180910390f35b6100b36100ae366004610713565b610280565b005b6100b361037f565b6100b36100cb36600461079b565b610393565b6001546040516001600160a01b039091168152602001610097565b6100b36100f93660046107fc565b6103ef565b6100b361010c366004610844565b6104e1565b60408051606080820183528082526020820152600091810191909152336000908152600260205260409081902081516060810190925280548290829061015690610866565b80601f016020809104026020016040519081016040528092919081815260200182805461018290610866565b80156101cf5780601f106101a4576101008083540402835291602001916101cf565b820191906000526020600020905b8154815290600101906020018083116101b257829003601f168201915b505050505081526020016001820180546101e890610866565b80601f016020809104026020016040519081016040528092919081815260200182805461021490610866565b80156102615780601f1061023657610100808354040283529160200191610261565b820191906000526020600020905b81548152906001019060200180831161024457829003601f168201915b50505091835250506002919091015460ff161515602090910152919050565b600054604051637163f89f60e11b8152839183916001600160a01b039091169063e2c7f13e906102b8903390869086906004016108a0565b602060405180830381865afa1580156102d5573d6000803e3d6000fd5b505050506040513d601f19601f820116820180604052508101906102f99190610902565b61031657604051639b3a19e960e01b815260040160405180910390fd5b336000908152600260205260409020600101610333868883610986565b50336001600160a01b03167fcac3663eb2024c6d25a728a4dbf48304e10a87ec79e5ce60f8bb3362cceabf78878760405161036f929190610a47565b60405180910390a2505050505050565b61038761053d565b6103916000610583565b565b61039b61053d565b3360009081526002602052604090206103b5828483610986565b506040516001600160a01b038416907ff06bd81cf6229b25b7e40cf4ed18c4390327a24a705767237e23721f685ef2a390600090a2505050565b600054604051637163f89f60e11b8152839183916001600160a01b039091169063e2c7f13e90610427903390869086906004016108a0565b602060405180830381865afa158015610444573d6000803e3d6000fd5b505050506040513d601f19601f820116820180604052508101906104689190610902565b61048557604051639b3a19e960e01b815260040160405180910390fd5b33600081815260026020818152604092839020909101805460ff191689151590811790915591519182527f9e355a529110cde9e1063e320ff1eccaac558c42f25f61edf76e32e7dfccfa4f910160405180910390a25050505050565b6104e961053d565b6001600160a01b038116610531576040517f1e4fbdf7000000000000000000000000000000000000000000000000000000008152600060048201526024015b60405180910390fd5b61053a81610583565b50565b6001546001600160a01b03163314610391576040517f118cdaa7000000000000000000000000000000000000000000000000000000008152336004820152602401610528565b600180546001600160a01b038381167fffffffffffffffffffffffff0000000000000000000000000000000000000000831681179093556040519116919082907f8be0079c531659141344cd1fd0a4f28419497f9722a3daafe3b4186f6b6457e090600090a35050565b6000815180845260005b81811015610613576020818501810151868301820152016105f7565b506000602082860101526020601f19601f83011685010191505092915050565b60208152600082516060602084015261064f60808401826105ed565b90506020840151601f1984830301604085015261066c82826105ed565b9150506040840151151560608401528091505092915050565b60008083601f84011261069757600080fd5b50813567ffffffffffffffff8111156106af57600080fd5b6020830191508360208285010111156106c757600080fd5b9250929050565b60008083601f8401126106e057600080fd5b50813567ffffffffffffffff8111156106f857600080fd5b6020830191508360208260051b85010111156106c757600080fd5b6000806000806040858703121561072957600080fd5b843567ffffffffffffffff8082111561074157600080fd5b61074d88838901610685565b9096509450602087013591508082111561076657600080fd5b50610773878288016106ce565b95989497509550505050565b80356001600160a01b038116811461079657600080fd5b919050565b6000806000604084860312156107b057600080fd5b6107b98461077f565b9250602084013567ffffffffffffffff8111156107d557600080fd5b6107e186828701610685565b9497909650939450505050565b801515811461053a57600080fd5b60008060006040848603121561081157600080fd5b833561081c816107ee565b9250602084013567ffffffffffffffff81111561083857600080fd5b6107e1868287016106ce565b60006020828403121561085657600080fd5b61085f8261077f565b9392505050565b600181811c9082168061087a57607f821691505b60208210810361089a57634e487b7160e01b600052602260045260246000fd5b50919050565b6001600160a01b03841681526040602082015281604082015260007f07ffffffffffffffffffffffffffffffffffffffffffffffffffffffffffffff8311156108e857600080fd5b8260051b8085606085013791909101606001949350505050565b60006020828403121561091457600080fd5b815161085f816107ee565b634e487b7160e01b600052604160045260246000fd5b601f821115610981576000816000526020600020601f850160051c8101602086101561095e5750805b601f850160051c820191505b8181101561097d5782815560010161096a565b5050505b505050565b67ffffffffffffffff83111561099e5761099e61091f565b6109b2836109ac8354610866565b83610935565b6000601f8411600181146109e657600085156109ce5750838201355b600019600387901b1c1916600186901b178355610a40565b600083815260209020601f19861690835b82811015610a1757868501358255602094850194600190920191016109f7565b5086821015610a345760001960f88860031b161c19848701351681555b505060018560011b0183555b5050505050565b60208152816020820152818360408301376000818301604090810191909152601f909201601f1916010191905056fea264697066735822122022ee1846f3e56b70f0b16cd4ceb3f830a7465fbfbc72aa45378293f11ac071c264736f6c63430008160033a264697066735822122001a6dc49503be00c9c49c3233647b167a37be790a2c2a85515366b57af9b6df764736f6c63430008160033",
  "linkReferences": {},
  "deployedLinkReferences": {}
}