{
  "_format": "hh-sol-artifact-1",
  "contractName": "SocialNetWork",
  "sourceName": "contracts/SocialNetwork.sol",
  "abi": [
    {
      "inputs": [
        {
          "internalType": "address",
          "name": "_socialTokenAddress",
          "type": "address"
        }
      ],
      "stateMutability": "nonpayable",
      "type": "constructor"
    },
    {
      "inputs": [],
      "name": "AlreadyFollowed",
      "type": "error"
    },
    {
      "inputs": [],
      "name": "AlreadyLiked",
      "type": "error"
    },
    {
      "inputs": [],
      "name": "AlreadyPinned",
      "type": "error"
    },
    {
      "inputs": [],
      "name": "AlreadyUnfollowed",
      "type": "error"
    },
    {
      "inputs": [],
      "name": "AlreadyUnliked",
      "type": "error"
    },
    {
      "inputs": [],
      "name": "AlreadyUnpinned",
      "type": "error"
    },
    {
      "inputs": [],
      "name": "OnlyService",
      "type": "error"
    },
    {
      "inputs": [],
      "name": "OnlyUser",
      "type": "error"
    },
    {
      "anonymous": false,
      "inputs": [
        {
          "indexed": true,
          "internalType": "address",
          "name": "_author",
          "type": "address"
        },
        {
          "indexed": true,
          "internalType": "bytes32",
          "name": "_cid",
          "type": "bytes32"
        }
      ],
      "name": "ArticlePosted",
      "type": "event"
    },
    {
      "anonymous": false,
      "inputs": [
        {
          "indexed": true,
          "internalType": "bytes32",
          "name": "_cidArticle",
          "type": "bytes32"
        },
        {
          "indexed": true,
          "internalType": "bytes32",
          "name": "_cid",
          "type": "bytes32"
        }
      ],
      "name": "Comment",
      "type": "event"
    },
    {
      "anonymous": false,
      "inputs": [
        {
          "indexed": true,
          "internalType": "address",
          "name": "_me",
          "type": "address"
        },
        {
          "indexed": false,
          "internalType": "address",
          "name": "_userFollow",
          "type": "address"
        }
      ],
      "name": "Followed",
      "type": "event"
    },
    {
      "anonymous": false,
      "inputs": [
        {
          "indexed": true,
          "internalType": "bytes32",
          "name": "_cid",
          "type": "bytes32"
        },
        {
          "indexed": true,
          "internalType": "address",
          "name": "_me",
          "type": "address"
        }
      ],
      "name": "Liked",
      "type": "event"
    },
    {
      "anonymous": false,
      "inputs": [
        {
          "indexed": true,
          "internalType": "bytes32",
          "name": "_cid",
          "type": "bytes32"
        },
        {
          "indexed": true,
          "internalType": "address",
          "name": "_me",
          "type": "address"
        }
      ],
      "name": "Pinned",
      "type": "event"
    },
    {
      "anonymous": false,
      "inputs": [
        {
          "indexed": true,
          "internalType": "address",
          "name": "_me",
          "type": "address"
        },
        {
          "indexed": false,
          "internalType": "address",
          "name": "_userFollow",
          "type": "address"
        }
      ],
      "name": "Unfollowed",
      "type": "event"
    },
    {
      "anonymous": false,
      "inputs": [
        {
          "indexed": true,
          "internalType": "bytes32",
          "name": "_cid",
          "type": "bytes32"
        },
        {
          "indexed": true,
          "internalType": "address",
          "name": "_me",
          "type": "address"
        }
      ],
      "name": "Unliked",
      "type": "event"
    },
    {
      "anonymous": false,
      "inputs": [
        {
          "indexed": true,
          "internalType": "bytes32",
          "name": "_cid",
          "type": "bytes32"
        },
        {
          "indexed": true,
          "internalType": "address",
          "name": "_me",
          "type": "address"
        }
      ],
      "name": "Unpinned",
      "type": "event"
    },
    {
      "inputs": [
        {
          "internalType": "address",
          "name": "_user",
          "type": "address"
        },
        {
          "internalType": "bytes32[]",
          "name": "_proof",
          "type": "bytes32[]"
        }
      ],
      "name": "follow",
      "outputs": [],
      "stateMutability": "nonpayable",
      "type": "function"
    },
    {
      "inputs": [
        {
          "internalType": "address",
          "name": "_user",
          "type": "address"
        },
        {
          "internalType": "bytes32[]",
          "name": "_proof",
          "type": "bytes32[]"
        }
      ],
      "name": "getLastArticleFrom",
      "outputs": [
        {
          "internalType": "bytes32",
          "name": "",
          "type": "bytes32"
        }
      ],
      "stateMutability": "view",
      "type": "function"
    },
    {
      "inputs": [
        {
          "internalType": "bytes32",
          "name": "_cid",
          "type": "bytes32"
        },
        {
          "internalType": "bytes32[]",
          "name": "_proof",
          "type": "bytes32[]"
        }
      ],
      "name": "getLastCommentByArticle",
      "outputs": [
        {
          "internalType": "bytes32",
          "name": "",
          "type": "bytes32"
        }
      ],
      "stateMutability": "view",
      "type": "function"
    },
    {
      "inputs": [],
      "name": "getMyLastArticle",
      "outputs": [
        {
          "internalType": "bytes32",
          "name": "",
          "type": "bytes32"
        }
      ],
      "stateMutability": "view",
      "type": "function"
    },
    {
      "inputs": [
        {
          "internalType": "address",
          "name": "_user",
          "type": "address"
        }
      ],
      "name": "isFollowed",
      "outputs": [
        {
          "internalType": "bool",
          "name": "",
          "type": "bool"
        }
      ],
      "stateMutability": "view",
      "type": "function"
    },
    {
      "inputs": [
        {
          "internalType": "bytes32",
          "name": "_cid",
          "type": "bytes32"
        }
      ],
      "name": "isPinned",
      "outputs": [
        {
          "internalType": "bool",
          "name": "",
          "type": "bool"
        }
      ],
      "stateMutability": "view",
      "type": "function"
    },
    {
      "inputs": [
        {
          "internalType": "bytes32",
          "name": "_cid",
          "type": "bytes32"
        },
        {
          "internalType": "bytes32[]",
          "name": "_proof",
          "type": "bytes32[]"
        }
      ],
      "name": "like",
      "outputs": [],
      "stateMutability": "nonpayable",
      "type": "function"
    },
    {
      "inputs": [
        {
          "internalType": "bytes32",
          "name": "",
          "type": "bytes32"
        }
      ],
      "name": "likes",
      "outputs": [
        {
          "internalType": "uint256",
          "name": "likes",
          "type": "uint256"
        }
      ],
      "stateMutability": "view",
      "type": "function"
    },
    {
      "inputs": [
        {
          "internalType": "bytes32",
          "name": "_cid",
          "type": "bytes32"
        },
        {
          "internalType": "bytes32[]",
          "name": "_proof",
          "type": "bytes32[]"
        }
      ],
      "name": "pin",
      "outputs": [],
      "stateMutability": "nonpayable",
      "type": "function"
    },
    {
      "inputs": [
        {
          "internalType": "bytes32",
          "name": "_cid",
          "type": "bytes32"
        },
        {
          "internalType": "bytes32[]",
          "name": "_proof",
          "type": "bytes32[]"
        }
      ],
      "name": "postArticle",
      "outputs": [],
      "stateMutability": "nonpayable",
      "type": "function"
    },
    {
      "inputs": [
        {
          "internalType": "bytes32",
          "name": "_articleCid",
          "type": "bytes32"
        },
        {
          "internalType": "bytes32",
          "name": "_cid",
          "type": "bytes32"
        },
        {
          "internalType": "bytes32[]",
          "name": "_proof",
          "type": "bytes32[]"
        }
      ],
      "name": "postComment",
      "outputs": [],
      "stateMutability": "nonpayable",
      "type": "function"
    },
    {
      "inputs": [
        {
          "internalType": "address",
          "name": "_user",
          "type": "address"
        },
        {
          "internalType": "bytes32[]",
          "name": "_proof",
          "type": "bytes32[]"
        }
      ],
      "name": "unfollow",
      "outputs": [],
      "stateMutability": "nonpayable",
      "type": "function"
    },
    {
      "inputs": [
        {
          "internalType": "bytes32",
          "name": "_cid",
          "type": "bytes32"
        },
        {
          "internalType": "bytes32[]",
          "name": "_proof",
          "type": "bytes32[]"
        }
      ],
      "name": "unlike",
      "outputs": [],
      "stateMutability": "nonpayable",
      "type": "function"
    },
    {
      "inputs": [
        {
          "internalType": "bytes32",
          "name": "_cid",
          "type": "bytes32"
        },
        {
          "internalType": "bytes32[]",
          "name": "_proof",
          "type": "bytes32[]"
        }
      ],
      "name": "unpin",
      "outputs": [],
      "stateMutability": "nonpayable",
      "type": "function"
    }
  ],
  "bytecode": "0x608060405234801561001057600080fd5b5060405161180538038061180583398101604081905261002f9161005b565b600080546001600160a01b039092166001600160a81b031990921691909117600160a01b17905561008b565b60006020828403121561006d57600080fd5b81516001600160a01b038116811461008457600080fd5b9392505050565b61176b8061009a6000396000f3fe608060405234801561001057600080fd5b50600436106100ea5760003560e01c8063b17ff4ed1161008c578063e506bef511610066578063e506bef5146101d4578063f2c1504f146101f7578063f842a7f91461020a578063f94cac5c1461021d57600080fd5b8063b17ff4ed1461018b578063b9cfb9ce146101ac578063e230a12e146101c157600080fd5b806365c1277d116100c857806365c1277d1461012a57806378be30651461013d5780637f2e62201461015057806384cb531a1461016357600080fd5b806306847759146100ef5780634c037e7b14610104578063541f6ade14610117575b600080fd5b6101026100fd366004611513565b610230565b005b610102610112366004611513565b61036c565b610102610125366004611513565b6104a1565b61010261013836600461157b565b6105d6565b61010261014b366004611513565b61070b565b61010261015e3660046115b5565b610840565b610176610171366004611608565b61097e565b60405190151581526020015b60405180910390f35b61019e610199366004611513565b6109ec565b604051908152602001610182565b3360009081526001602052604090205461019e565b61019e6101cf36600461157b565b610b33565b61019e6101e236600461162a565b60036020526000908152604090206001015481565b610102610205366004611513565b610c7e565b61017661021836600461162a565b610db3565b61010261022b36600461157b565b610e05565b60005460405163ae88f77360e01b81526001600160a01b0382169163ae88f7739161026891600160a01b900460ff1690600401611643565b602060405180830381865afa158015610285573d6000803e3d6000fd5b505050506040513d601f19601f820116820180604052508101906102a9919061166b565b6102c6576040516387d400b960e01b815260040160405180910390fd5b600054604051637163f89f60e11b8152839183916001600160a01b039091169063e2c7f13e906102fe9033908690869060040161168d565b602060405180830381865afa15801561031b573d6000803e3d6000fd5b505050506040513d601f19601f8201168201806040525081019061033f919061166b565b61035c57604051639b3a19e960e01b815260040160405180910390fd5b61036585610f3a565b5050505050565b60005460405163ae88f77360e01b81526001600160a01b0382169163ae88f773916103a491600160a01b900460ff1690600401611643565b602060405180830381865afa1580156103c1573d6000803e3d6000fd5b505050506040513d601f19601f820116820180604052508101906103e5919061166b565b610402576040516387d400b960e01b815260040160405180910390fd5b600054604051637163f89f60e11b8152839183916001600160a01b039091169063e2c7f13e9061043a9033908690869060040161168d565b602060405180830381865afa158015610457573d6000803e3d6000fd5b505050506040513d601f19601f8201168201806040525081019061047b919061166b565b61049857604051639b3a19e960e01b815260040160405180910390fd5b6103658561101e565b60005460405163ae88f77360e01b81526001600160a01b0382169163ae88f773916104d991600160a01b900460ff1690600401611643565b602060405180830381865afa1580156104f6573d6000803e3d6000fd5b505050506040513d601f19601f8201168201806040525081019061051a919061166b565b610537576040516387d400b960e01b815260040160405180910390fd5b600054604051637163f89f60e11b8152839183916001600160a01b039091169063e2c7f13e9061056f9033908690869060040161168d565b602060405180830381865afa15801561058c573d6000803e3d6000fd5b505050506040513d601f19601f820116820180604052508101906105b0919061166b565b6105cd57604051639b3a19e960e01b815260040160405180910390fd5b6103658561105b565b60005460405163ae88f77360e01b81526001600160a01b0382169163ae88f7739161060e91600160a01b900460ff1690600401611643565b602060405180830381865afa15801561062b573d6000803e3d6000fd5b505050506040513d601f19601f8201168201806040525081019061064f919061166b565b61066c576040516387d400b960e01b815260040160405180910390fd5b600054604051637163f89f60e11b8152839183916001600160a01b039091169063e2c7f13e906106a49033908690869060040161168d565b602060405180830381865afa1580156106c1573d6000803e3d6000fd5b505050506040513d601f19601f820116820180604052508101906106e5919061166b565b61070257604051639b3a19e960e01b815260040160405180910390fd5b6103658561111e565b60005460405163ae88f77360e01b81526001600160a01b0382169163ae88f7739161074391600160a01b900460ff1690600401611643565b602060405180830381865afa158015610760573d6000803e3d6000fd5b505050506040513d601f19601f82011682018060405250810190610784919061166b565b6107a1576040516387d400b960e01b815260040160405180910390fd5b600054604051637163f89f60e11b8152839183916001600160a01b039091169063e2c7f13e906107d99033908690869060040161168d565b602060405180830381865afa1580156107f6573d6000803e3d6000fd5b505050506040513d601f19601f8201168201806040525081019061081a919061166b565b61083757604051639b3a19e960e01b815260040160405180910390fd5b6103658561120a565b60005460405163ae88f77360e01b81526001600160a01b0382169163ae88f7739161087891600160a01b900460ff1690600401611643565b602060405180830381865afa158015610895573d6000803e3d6000fd5b505050506040513d601f19601f820116820180604052508101906108b9919061166b565b6108d6576040516387d400b960e01b815260040160405180910390fd5b600054604051637163f89f60e11b8152839183916001600160a01b039091169063e2c7f13e9061090e9033908690869060040161168d565b602060405180830381865afa15801561092b573d6000803e3d6000fd5b505050506040513d601f19601f8201168201806040525081019061094f919061166b565b61096c57604051639b3a19e960e01b815260040160405180910390fd5b61097686866112cf565b505050505050565b6000600460006109d2846040516bffffffffffffffffffffffff1933606090811b8216602084015283901b166034820152600090604801604051602081830303815290604052805190602001209050919050565b815260208101919091526040016000205460ff1692915050565b6000805460405163ae88f77360e01b81526001600160a01b0382169163ae88f77391610a2591600160a01b900460ff1690600401611643565b602060405180830381865afa158015610a42573d6000803e3d6000fd5b505050506040513d601f19601f82011682018060405250810190610a66919061166b565b610a83576040516387d400b960e01b815260040160405180910390fd5b600054604051637163f89f60e11b8152849184916001600160a01b039091169063e2c7f13e90610abb9033908690869060040161168d565b602060405180830381865afa158015610ad8573d6000803e3d6000fd5b505050506040513d601f19601f82011682018060405250810190610afc919061166b565b610b1957604051639b3a19e960e01b815260040160405180910390fd5b6000868152600260205260409020545b9695505050505050565b6000805460405163ae88f77360e01b81526001600160a01b0382169163ae88f77391610b6c91600160a01b900460ff1690600401611643565b602060405180830381865afa158015610b89573d6000803e3d6000fd5b505050506040513d601f19601f82011682018060405250810190610bad919061166b565b610bca576040516387d400b960e01b815260040160405180910390fd5b600054604051637163f89f60e11b8152849184916001600160a01b039091169063e2c7f13e90610c029033908690869060040161168d565b602060405180830381865afa158015610c1f573d6000803e3d6000fd5b505050506040513d601f19601f82011682018060405250810190610c43919061166b565b610c6057604051639b3a19e960e01b815260040160405180910390fd5b6001600160a01b038616600090815260016020526040902054610b29565b60005460405163ae88f77360e01b81526001600160a01b0382169163ae88f77391610cb691600160a01b900460ff1690600401611643565b602060405180830381865afa158015610cd3573d6000803e3d6000fd5b505050506040513d601f19601f82011682018060405250810190610cf7919061166b565b610d14576040516387d400b960e01b815260040160405180910390fd5b600054604051637163f89f60e11b8152839183916001600160a01b039091169063e2c7f13e90610d4c9033908690869060040161168d565b602060405180830381865afa158015610d69573d6000803e3d6000fd5b505050506040513d601f19601f82011682018060405250810190610d8d919061166b565b610daa57604051639b3a19e960e01b815260040160405180910390fd5b6103658561130e565b6000600560006109d233856040516bffffffffffffffffffffffff19606084901b1660208201526034810182905260009060540160405160208183030381529060405280519060200120905092915050565b60005460405163ae88f77360e01b81526001600160a01b0382169163ae88f77391610e3d91600160a01b900460ff1690600401611643565b602060405180830381865afa158015610e5a573d6000803e3d6000fd5b505050506040513d601f19601f82011682018060405250810190610e7e919061166b565b610e9b576040516387d400b960e01b815260040160405180910390fd5b600054604051637163f89f60e11b8152839183916001600160a01b039091169063e2c7f13e90610ed39033908690869060040161168d565b602060405180830381865afa158015610ef0573d6000803e3d6000fd5b505050506040513d601f19601f82011682018060405250810190610f14919061166b565b610f3157604051639b3a19e960e01b815260040160405180910390fd5b610365856113d7565b80610f4481610db3565b15610f7b576040517f2877f77b00000000000000000000000000000000000000000000000000000000815260040160405180910390fd5b600160056000610fcd33866040516bffffffffffffffffffffffff19606084901b1660208201526034810182905260009060540160405160208183030381529060405280519060200120905092915050565b8152602081019190915260409081016000908120805460ff19169315159390931790925551339184917f0906f7e0f070699d64433e9f3259a964fa67fc7c4cf258f579ce408d5143228b9190a35050565b33600081815260016020526040808220849055518392917fd59f80e0dd5a6f38729b326e0cdc8b14c1f4e85ab0c642784be1f6dc03491ac891a350565b6000818152600360209081526040808320338452909152902054819060ff166110b0576040517fa5d132f700000000000000000000000000000000000000000000000000000000815260040160405180910390fd5b6000828152600360208181526040808420338552808352908420805460ff1916905585845291905260010180549091906110e990611705565b90915550604051339083907f31e90b8de89e15dee9a636ce1ac812809a8416fd6f009d65ec068a91fa7a5bbc90600090a35050565b806111288161097e565b61115e576040517f60aacb1700000000000000000000000000000000000000000000000000000000815260040160405180910390fd5b600460006111b0846040516bffffffffffffffffffffffff1933606090811b8216602084015283901b166034820152600090604801604051602081830303815290604052805190602001209050919050565b81526020808201929092526040908101600020805460ff19169055516001600160a01b038416815233917f25b48012798806863072289354ed0b3849b73152482d9c6694e5cbb35f38d5e391015b60405180910390a25050565b8061121481610db3565b61124a576040517fe68cf57d00000000000000000000000000000000000000000000000000000000815260040160405180910390fd5b6040805133606081901b6bffffffffffffffffffffffff1916602080840191909152603480840187905284518085039091018152605490930180855283519382019390932060009081526005909152928320805460ff191690559184917f1c2ffe66a540aaa393f91ea761ec63a003f19b97edfd1c7705cb455a695d8ea19190a35050565b60008281526002602052604080822083905551829184917fb65503325a293f52b84a6ae139d03041dcc4f9ada4e525c3a83b19291d1337349190a35050565b6000818152600360209081526040808320338452909152902054819060ff1615611364576040517f22aba90d00000000000000000000000000000000000000000000000000000000815260040160405180910390fd5b6000828152600360208181526040808420338552808352908420805460ff19166001908117909155868552929091520180549091906113a29061171c565b90915550604051339083907f5dfc37bd4eb2a27e5ca58365a961dd4dc9a071a49837c9c4ecdb7013cfc1453490600090a35050565b806113e18161097e565b15611418576040517f76f1b26800000000000000000000000000000000000000000000000000000000815260040160405180910390fd5b60016004600061146c856040516bffffffffffffffffffffffff1933606090811b8216602084015283901b166034820152600090604801604051602081830303815290604052805190602001209050919050565b81526020808201929092526040908101600020805460ff19169315159390931790925590516001600160a01b038416815233917f6178e95c138f06036cdc07a49ed6a3d23008969fa143baeceb037ebae22e8d1491016111fe565b60008083601f8401126114d957600080fd5b50813567ffffffffffffffff8111156114f157600080fd5b6020830191508360208260051b850101111561150c57600080fd5b9250929050565b60008060006040848603121561152857600080fd5b83359250602084013567ffffffffffffffff81111561154657600080fd5b611552868287016114c7565b9497909650939450505050565b80356001600160a01b038116811461157657600080fd5b919050565b60008060006040848603121561159057600080fd5b6115998461155f565b9250602084013567ffffffffffffffff81111561154657600080fd5b600080600080606085870312156115cb57600080fd5b8435935060208501359250604085013567ffffffffffffffff8111156115f057600080fd5b6115fc878288016114c7565b95989497509550505050565b60006020828403121561161a57600080fd5b6116238261155f565b9392505050565b60006020828403121561163c57600080fd5b5035919050565b602081016004831061166557634e487b7160e01b600052602160045260246000fd5b91905290565b60006020828403121561167d57600080fd5b8151801515811461162357600080fd5b6001600160a01b03841681526040602082015281604082015260007f07ffffffffffffffffffffffffffffffffffffffffffffffffffffffffffffff8311156116d557600080fd5b8260051b8085606085013791909101606001949350505050565b634e487b7160e01b600052601160045260246000fd5b600081611714576117146116ef565b506000190190565b60006001820161172e5761172e6116ef565b506001019056fea26469706673582212203b19dc45d84851b51449d4c50613cb8fe598e35b5de01b44c886ce3103d3a9fa64736f6c63430008160033",
  "linkReferences": {},
  "deployedLinkReferences": {}
}