{
  "_format": "hh-sol-artifact-1",
  "contractName": "SocialNetworkMessenger",
  "sourceName": "contracts/SocialNetWorkMessenger.sol",
  "abi": [
    {
      "inputs": [
        {
          "internalType": "address",
          "name": "_socialTokenAddress",
          "type": "address"
        }
      ],
      "stateMutability": "nonpayable",
      "type": "constructor"
    },
    {
      "inputs": [],
      "name": "OnlyService",
      "type": "error"
    },
    {
      "inputs": [],
      "name": "OnlyUser",
      "type": "error"
    },
    {
      "anonymous": false,
      "inputs": [
        {
          "indexed": true,
          "internalType": "address",
          "name": "_from",
          "type": "address"
        },
        {
          "indexed": true,
          "internalType": "address",
          "name": "_to",
          "type": "address"
        }
      ],
      "name": "BurnChat",
      "type": "event"
    },
    {
      "anonymous": false,
      "inputs": [
        {
          "indexed": true,
          "internalType": "address",
          "name": "_from",
          "type": "address"
        },
        {
          "indexed": true,
          "internalType": "address",
          "name": "_to",
          "type": "address"
        },
        {
          "indexed": false,
          "internalType": "bytes32",
          "name": "_cid",
          "type": "bytes32"
        }
      ],
      "name": "MessageSended",
      "type": "event"
    },
    {
      "inputs": [
        {
          "internalType": "address",
          "name": "_to",
          "type": "address"
        },
        {
          "internalType": "bytes32[]",
          "name": "_proof",
          "type": "bytes32[]"
        }
      ],
      "name": "burnChat",
      "outputs": [],
      "stateMutability": "nonpayable",
      "type": "function"
    },
    {
      "inputs": [
        {
          "internalType": "address",
          "name": "_to",
          "type": "address"
        },
        {
          "internalType": "bytes32[]",
          "name": "_proof",
          "type": "bytes32[]"
        }
      ],
      "name": "getCurrentCID",
      "outputs": [
        {
          "internalType": "bytes32",
          "name": "",
          "type": "bytes32"
        }
      ],
      "stateMutability": "view",
      "type": "function"
    },
    {
      "inputs": [
        {
          "internalType": "bytes32",
          "name": "_newCid",
          "type": "bytes32"
        },
        {
          "internalType": "address",
          "name": "_to",
          "type": "address"
        },
        {
          "internalType": "bytes32[]",
          "name": "_proof",
          "type": "bytes32[]"
        }
      ],
      "name": "sendMessage",
      "outputs": [],
      "stateMutability": "nonpayable",
      "type": "function"
    }
  ],
  "bytecode": "0x608060405234801561001057600080fd5b5060405161085c38038061085c83398101604081905261002f9161005b565b600080546001600160a01b039092166001600160a81b031990921691909117600160a11b17905561008b565b60006020828403121561006d57600080fd5b81516001600160a01b038116811461008457600080fd5b9392505050565b6107c28061009a6000396000f3fe608060405234801561001057600080fd5b50600436106100415760003560e01c80633d201d5d14610046578063924133921461005b578063bb679a701461006e575b600080fd5b610059610054366004610613565b610093565b005b61005961006936600461066d565b61022e565b61008161007c36600461066d565b6103c0565b60405190815260200160405180910390f35b60005460405163ae88f77360e01b81526001600160a01b0382169163ae88f773916100cb91600160a01b900460ff16906004016106c0565b602060405180830381865afa1580156100e8573d6000803e3d6000fd5b505050506040513d601f19601f8201168201806040525081019061010c9190610701565b610129576040516387d400b960e01b815260040160405180910390fd5b600054604051637163f89f60e11b8152839183916001600160a01b039091169063e2c7f13e906101619033908690869060040161072a565b602060405180830381865afa15801561017e573d6000803e3d6000fd5b505050506040513d601f19601f820116820180604052508101906101a29190610701565b6101bf57604051639b3a19e960e01b815260040160405180910390fd5b60006101ca86610514565b60008181526001602052604090819020899055519091506001600160a01b0387169033907f2bbcb396af4d1118e7ceb24e400f1d62b8d500484429ce069853ad432096d5d59061021d908b815260200190565b60405180910390a350505050505050565b60005460405163ae88f77360e01b81526001600160a01b0382169163ae88f7739161026691600160a01b900460ff16906004016106c0565b602060405180830381865afa158015610283573d6000803e3d6000fd5b505050506040513d601f19601f820116820180604052508101906102a79190610701565b6102c4576040516387d400b960e01b815260040160405180910390fd5b600054604051637163f89f60e11b8152839183916001600160a01b039091169063e2c7f13e906102fc9033908690869060040161072a565b602060405180830381865afa158015610319573d6000803e3d6000fd5b505050506040513d601f19601f8201168201806040525081019061033d9190610701565b61035a57604051639b3a19e960e01b815260040160405180910390fd5b6001600061036787610514565b815260200190815260200160002060009055846001600160a01b0316336001600160a01b03167fa38c9436e1923c463704b99a2b3f4c9cb570fc1b03829c30a45f444d24f4807460405160405180910390a35050505050565b6000805460405163ae88f77360e01b81526001600160a01b0382169163ae88f773916103f991600160a01b900460ff16906004016106c0565b602060405180830381865afa158015610416573d6000803e3d6000fd5b505050506040513d601f19601f8201168201806040525081019061043a9190610701565b610457576040516387d400b960e01b815260040160405180910390fd5b600054604051637163f89f60e11b8152849184916001600160a01b039091169063e2c7f13e9061048f9033908690869060040161072a565b602060405180830381865afa1580156104ac573d6000803e3d6000fd5b505050506040513d601f19601f820116820180604052508101906104d09190610701565b6104ed57604051639b3a19e960e01b815260040160405180910390fd5b600160006104fa88610514565b815260200190815260200160002054925050509392505050565b6000336001600160a01b03831610610564576040516bffffffffffffffffffffffff1933606090811b8216602084015284901b16603482015260480160405160208183030381529060405261059d565b6040516bffffffffffffffffffffffff19606084811b8216602084015233901b1660348201526048016040516020818303038152906040525b805190602001209050919050565b80356001600160a01b03811681146105c257600080fd5b919050565b60008083601f8401126105d957600080fd5b50813567ffffffffffffffff8111156105f157600080fd5b6020830191508360208260051b850101111561060c57600080fd5b9250929050565b6000806000806060858703121561062957600080fd5b84359350610639602086016105ab565b9250604085013567ffffffffffffffff81111561065557600080fd5b610661878288016105c7565b95989497509550505050565b60008060006040848603121561068257600080fd5b61068b846105ab565b9250602084013567ffffffffffffffff8111156106a757600080fd5b6106b3868287016105c7565b9497909650939450505050565b60208101600483106106fb577f4e487b7100000000000000000000000000000000000000000000000000000000600052602160045260246000fd5b91905290565b60006020828403121561071357600080fd5b8151801515811461072357600080fd5b9392505050565b6001600160a01b03841681526040602082015281604082015260007f07ffffffffffffffffffffffffffffffffffffffffffffffffffffffffffffff83111561077257600080fd5b8260051b808560608501379190910160600194935050505056fea2646970667358221220971cdd1de7321414e727b90ab99e7dacdd0a2f8c1d81bd5bd20ea597aa35ca8e64736f6c63430008160033",
  "linkReferences": {},
  "deployedLinkReferences": {}
}