{
  "_format": "hh-sol-artifact-1",
  "contractName": "SocialAccount",
  "sourceName": "contracts/SocialAccount.sol",
  "abi": [
    {
      "inputs": [
        {
          "internalType": "address",
          "name": "_owner",
          "type": "address"
        },
        {
          "internalType": "address",
          "name": "_admin",
          "type": "address"
        },
        {
          "internalType": "address[]",
          "name": "_to",
          "type": "address[]"
        },
        {
          "internalType": "bytes32",
          "name": "_merkleRoot",
          "type": "bytes32"
        }
      ],
      "stateMutability": "nonpayable",
      "type": "constructor"
    },
    {
      "inputs": [],
      "name": "OnlyAdmin",
      "type": "error"
    },
    {
      "inputs": [
        {
          "internalType": "address",
          "name": "owner",
          "type": "address"
        }
      ],
      "name": "OwnableInvalidOwner",
      "type": "error"
    },
    {
      "inputs": [
        {
          "internalType": "address",
          "name": "account",
          "type": "address"
        }
      ],
      "name": "OwnableUnauthorizedAccount",
      "type": "error"
    },
    {
      "anonymous": false,
      "inputs": [
        {
          "indexed": true,
          "internalType": "address",
          "name": "previousOwner",
          "type": "address"
        },
        {
          "indexed": true,
          "internalType": "address",
          "name": "newOwner",
          "type": "address"
        }
      ],
      "name": "OwnershipTransferred",
      "type": "event"
    },
    {
      "anonymous": false,
      "inputs": [
        {
          "indexed": false,
          "internalType": "address[]",
          "name": "_users",
          "type": "address[]"
        }
      ],
      "name": "UsersCreated",
      "type": "event"
    },
    {
      "inputs": [
        {
          "internalType": "address[]",
          "name": "_to",
          "type": "address[]"
        },
        {
          "internalType": "bytes32",
          "name": "_merkleRoot",
          "type": "bytes32"
        }
      ],
      "name": "addMoreUser",
      "outputs": [],
      "stateMutability": "nonpayable",
      "type": "function"
    },
    {
      "inputs": [
        {
          "internalType": "enum SocialAccount.Services",
          "name": "_service",
          "type": "uint8"
        }
      ],
      "name": "isServiceActive",
      "outputs": [
        {
          "internalType": "bool",
          "name": "",
          "type": "bool"
        }
      ],
      "stateMutability": "view",
      "type": "function"
    },
    {
      "inputs": [
        {
          "internalType": "address",
          "name": "_user",
          "type": "address"
        },
        {
          "internalType": "bytes32[]",
          "name": "_proof",
          "type": "bytes32[]"
        }
      ],
      "name": "isUser",
      "outputs": [
        {
          "internalType": "bool",
          "name": "",
          "type": "bool"
        }
      ],
      "stateMutability": "view",
      "type": "function"
    },
    {
      "inputs": [],
      "name": "merkleRoot",
      "outputs": [
        {
          "internalType": "bytes32",
          "name": "",
          "type": "bytes32"
        }
      ],
      "stateMutability": "view",
      "type": "function"
    },
    {
      "inputs": [],
      "name": "owner",
      "outputs": [
        {
          "internalType": "address",
          "name": "",
          "type": "address"
        }
      ],
      "stateMutability": "view",
      "type": "function"
    },
    {
      "inputs": [],
      "name": "renounceOwnership",
      "outputs": [],
      "stateMutability": "nonpayable",
      "type": "function"
    },
    {
      "inputs": [],
      "name": "toggleServices",
      "outputs": [],
      "stateMutability": "nonpayable",
      "type": "function"
    },
    {
      "inputs": [
        {
          "internalType": "address",
          "name": "newOwner",
          "type": "address"
        }
      ],
      "name": "transferOwnership",
      "outputs": [],
      "stateMutability": "nonpayable",
      "type": "function"
    },
    {
      "inputs": [
        {
          "internalType": "uint256",
          "name": "",
          "type": "uint256"
        }
      ],
      "name": "users",
      "outputs": [
        {
          "internalType": "address",
          "name": "",
          "type": "address"
        }
      ],
      "stateMutability": "view",
      "type": "function"
    }
  ],
  "bytecode": "0x60806040523480156200001157600080fd5b5060405162000b7e38038062000b7e8339810160408190526200003491620001ef565b836001600160a01b0381166200006457604051631e4fbdf760e01b81526000600482015260240160405180910390fd5b6200006f8162000148565b50600180546001600160a01b0319166001600160a01b038516179055815162000099908262000198565b62000105600160046020527fabd6e7cb50984ff9c2f3e18a2660c3353dadf4e3291deeb275dae2cd1e44fe05805491151560ff19928316811790915560026000527f91da3fd0782e51c6b3986e9e672fd566868e71f3dbc2d6c2cd6fbb3e361af2a78054909216179055565b7f15603ba58569f9ef54fc6628c6a026ea6f3b5b3ca93ff52da07b5ce76201243482604051620001369190620002ef565b60405180910390a15050505062000366565b600080546001600160a01b038381166001600160a01b0319831681178455604051919092169283917f8be0079c531659141344cd1fd0a4f28419497f9722a3daafe3b4186f6b6457e09190a35050565b806002819055508160036000828254620001b391906200033e565b90915550505050565b80516001600160a01b0381168114620001d457600080fd5b919050565b634e487b7160e01b600052604160045260246000fd5b600080600080608085870312156200020657600080fd5b6200021185620001bc565b9350602062000222818701620001bc565b60408701519094506001600160401b03808211156200024057600080fd5b818801915088601f8301126200025557600080fd5b8151818111156200026a576200026a620001d9565b8060051b604051601f19603f83011681018181108582111715620002925762000292620001d9565b60405291825284820192508381018501918b831115620002b157600080fd5b938501935b82851015620002da57620002ca85620001bc565b84529385019392850192620002b6565b60609a909a0151989b979a5050505050505050565b6020808252825182820181905260009190848201906040850190845b81811015620003325783516001600160a01b0316835292840192918401916001016200030b565b50909695505050505050565b808201808211156200036057634e487b7160e01b600052601160045260246000fd5b92915050565b61080880620003766000396000f3fe608060405234801561001057600080fd5b50600436106100a35760003560e01c80638da5cb5b11610076578063ae88f7731161005b578063ae88f77314610125578063e2c7f13e14610148578063f2fde38b1461015b57600080fd5b80638da5cb5b1461010c5780638e7457e31461011d57600080fd5b80632eb4a7ab146100a8578063365b98b2146100c457806359433fae146100ef578063715018a614610104575b600080fd5b6100b160025481565b6040519081526020015b60405180910390f35b6100d76100d23660046105b0565b61016e565b6040516001600160a01b0390911681526020016100bb565b6101026100fd366004610615565b610198565b005b6101026102b1565b6000546001600160a01b03166100d7565b6101026102c5565b610138610133366004610661565b610337565b60405190151581526020016100bb565b61013861015636600461069e565b61037a565b6101026101693660046106f1565b61038f565b6005818154811061017e57600080fd5b6000918252602090912001546001600160a01b0316905081565b6001546001600160a01b031633146101dc576040517f4755657900000000000000000000000000000000000000000000000000000000815260040160405180910390fd5b6101e682826103eb565b60005b61ffff811683111561027357600584848361ffff1681811061020d5761020d61070c565b905060200201602081019061022291906106f1565b815460018101835560009283526020909220909101805473ffffffffffffffffffffffffffffffffffffffff19166001600160a01b039092169190911790558061026b81610738565b9150506101e9565b507f15603ba58569f9ef54fc6628c6a026ea6f3b5b3ca93ff52da07b5ce76201243460056040516102a49190610759565b60405180910390a1505050565b6102b961040d565b6102c36000610453565b565b6102cd61040d565b60046020527fabd6e7cb50984ff9c2f3e18a2660c3353dadf4e3291deeb275dae2cd1e44fe05805460ff1980821660ff9092161591821790925560026000527f91da3fd0782e51c6b3986e9e672fd566868e71f3dbc2d6c2cd6fbb3e361af2a78054909216179055565b60006004600083600381111561034f5761034f6107a9565b6003811115610360576103606107a9565b815260208101919091526040016000205460ff1692915050565b60006103878484846104b0565b949350505050565b61039761040d565b6001600160a01b0381166103df576040517f1e4fbdf7000000000000000000000000000000000000000000000000000000008152600060048201526024015b60405180910390fd5b6103e881610453565b50565b80600281905550816003600082825461040491906107bf565b90915550505050565b6000546001600160a01b031633146102c3576040517f118cdaa70000000000000000000000000000000000000000000000000000000081523360048201526024016103d6565b600080546001600160a01b0383811673ffffffffffffffffffffffffffffffffffffffff19831681178455604051919092169283917f8be0079c531659141344cd1fd0a4f28419497f9722a3daafe3b4186f6b6457e09190a35050565b6000610387838380806020026020016040519081016040528093929190818152602001838360200280828437600092019190915250506002546040516bffffffffffffffffffffffff1960608b901b1660208201529092506034019050604051602081830303815290604052805190602001206000826105308584610539565b14949350505050565b600081815b84518110156105745761056a8286838151811061055d5761055d61070c565b602002602001015161057e565b915060010161053e565b5090505b92915050565b600081831061059a5760008281526020849052604090206105a9565b60008381526020839052604090205b9392505050565b6000602082840312156105c257600080fd5b5035919050565b60008083601f8401126105db57600080fd5b50813567ffffffffffffffff8111156105f357600080fd5b6020830191508360208260051b850101111561060e57600080fd5b9250929050565b60008060006040848603121561062a57600080fd5b833567ffffffffffffffff81111561064157600080fd5b61064d868287016105c9565b909790965060209590950135949350505050565b60006020828403121561067357600080fd5b8135600481106105a957600080fd5b80356001600160a01b038116811461069957600080fd5b919050565b6000806000604084860312156106b357600080fd5b6106bc84610682565b9250602084013567ffffffffffffffff8111156106d857600080fd5b6106e4868287016105c9565b9497909650939450505050565b60006020828403121561070357600080fd5b6105a982610682565b634e487b7160e01b600052603260045260246000fd5b634e487b7160e01b600052601160045260246000fd5b600061ffff80831681810361074f5761074f610722565b6001019392505050565b6020808252825482820181905260008481528281209092916040850190845b8181101561079d5783546001600160a01b031683526001938401939285019201610778565b50909695505050505050565b634e487b7160e01b600052602160045260246000fd5b808201808211156105785761057861072256fea2646970667358221220400fe2e193751c3e3e08ff1e82c6fe00486d0f8e2c4f8a8073c81543cfbd637c64736f6c63430008160033",
  "linkReferences": {},
  "deployedLinkReferences": {}
}