{
  "_format": "hh-sol-artifact-1",
  "contractName": "SocialProfile",
  "sourceName": "contracts/SocialProfile.sol",
  "abi": [
    {
      "inputs": [
        {
          "internalType": "address",
          "name": "_owner",
          "type": "address"
        },
        {
          "internalType": "address",
          "name": "_socialTokenAddress",
          "type": "address"
        }
      ],
      "stateMutability": "nonpayable",
      "type": "constructor"
    },
    {
      "inputs": [],
      "name": "OnlyService",
      "type": "error"
    },
    {
      "inputs": [],
      "name": "OnlyUser",
      "type": "error"
    },
    {
      "inputs": [
        {
          "internalType": "address",
          "name": "owner",
          "type": "address"
        }
      ],
      "name": "OwnableInvalidOwner",
      "type": "error"
    },
    {
      "inputs": [
        {
          "internalType": "address",
          "name": "account",
          "type": "address"
        }
      ],
      "name": "OwnableUnauthorizedAccount",
      "type": "error"
    },
    {
      "anonymous": false,
      "inputs": [
        {
          "indexed": true,
          "internalType": "address",
          "name": "_user",
          "type": "address"
        }
      ],
      "name": "CreateProfile",
      "type": "event"
    },
    {
      "anonymous": false,
      "inputs": [
        {
          "indexed": true,
          "internalType": "address",
          "name": "previousOwner",
          "type": "address"
        },
        {
          "indexed": true,
          "internalType": "address",
          "name": "newOwner",
          "type": "address"
        }
      ],
      "name": "OwnershipTransferred",
      "type": "event"
    },
    {
      "anonymous": false,
      "inputs": [
        {
          "indexed": false,
          "internalType": "string",
          "name": "_pseudo",
          "type": "string"
        },
        {
          "indexed": true,
          "internalType": "address",
          "name": "_user",
          "type": "address"
        }
      ],
      "name": "UpdatePseudo",
      "type": "event"
    },
    {
      "anonymous": false,
      "inputs": [
        {
          "indexed": false,
          "internalType": "bool",
          "name": "_status",
          "type": "bool"
        },
        {
          "indexed": true,
          "internalType": "address",
          "name": "_user",
          "type": "address"
        }
      ],
      "name": "UpdateStatus",
      "type": "event"
    },
    {
      "inputs": [
        {
          "internalType": "address",
          "name": "_user",
          "type": "address"
        },
        {
          "internalType": "string",
          "name": "_name",
          "type": "string"
        }
      ],
      "name": "createProfile",
      "outputs": [],
      "stateMutability": "nonpayable",
      "type": "function"
    },
    {
      "inputs": [],
      "name": "getMyProfile",
      "outputs": [
        {
          "components": [
            {
              "internalType": "string",
              "name": "name",
              "type": "string"
            },
            {
              "internalType": "string",
              "name": "pseudo",
              "type": "string"
            },
            {
              "internalType": "bool",
              "name": "status",
              "type": "bool"
            }
          ],
          "internalType": "struct SocialProfile.User",
          "name": "",
          "type": "tuple"
        }
      ],
      "stateMutability": "view",
      "type": "function"
    },
    {
      "inputs": [],
      "name": "owner",
      "outputs": [
        {
          "internalType": "address",
          "name": "",
          "type": "address"
        }
      ],
      "stateMutability": "view",
      "type": "function"
    },
    {
      "inputs": [],
      "name": "renounceOwnership",
      "outputs": [],
      "stateMutability": "nonpayable",
      "type": "function"
    },
    {
      "inputs": [
        {
          "internalType": "address",
          "name": "newOwner",
          "type": "address"
        }
      ],
      "name": "transferOwnership",
      "outputs": [],
      "stateMutability": "nonpayable",
      "type": "function"
    },
    {
      "inputs": [
        {
          "internalType": "string",
          "name": "_pseudo",
          "type": "string"
        },
        {
          "internalType": "bytes32[]",
          "name": "_proof",
          "type": "bytes32[]"
        }
      ],
      "name": "updatePseudo",
      "outputs": [],
      "stateMutability": "nonpayable",
      "type": "function"
    },
    {
      "inputs": [
        {
          "internalType": "bool",
          "name": "_status",
          "type": "bool"
        },
        {
          "internalType": "bytes32[]",
          "name": "_proof",
          "type": "bytes32[]"
        }
      ],
      "name": "updateStatus",
      "outputs": [],
      "stateMutability": "nonpayable",
      "type": "function"
    }
  ],
  "bytecode": "0x608060405234801561001057600080fd5b50604051610bec380380610bec83398101604081905261002f916100fe565b600080546001600160a01b038084166001600160a81b031990921691909117600360a01b179091558290811661007f57604051631e4fbdf760e01b81526000600482015260240160405180910390fd5b61008881610090565b505050610131565b600180546001600160a01b038381166001600160a01b0319831681179093556040519116919082907f8be0079c531659141344cd1fd0a4f28419497f9722a3daafe3b4186f6b6457e090600090a35050565b80516001600160a01b03811681146100f957600080fd5b919050565b6000806040838503121561011157600080fd5b61011a836100e2565b9150610128602084016100e2565b90509250929050565b610aac806101406000396000f3fe608060405234801561001057600080fd5b506004361061007d5760003560e01c80637765eba11161005b5780637765eba1146100bd5780638da5cb5b146100d057806390b02fb4146100eb578063f2fde38b146100fe57600080fd5b806321527e50146100825780634b66adc1146100a0578063715018a6146100b5575b600080fd5b61008a610111565b6040516100979190610633565b60405180910390f35b6100b36100ae366004610713565b610280565b005b6100b361037f565b6100b36100cb36600461079b565b610393565b6001546040516001600160a01b039091168152602001610097565b6100b36100f93660046107fc565b6103ef565b6100b361010c366004610844565b6104e1565b60408051606080820183528082526020820152600091810191909152336000908152600260205260409081902081516060810190925280548290829061015690610866565b80601f016020809104026020016040519081016040528092919081815260200182805461018290610866565b80156101cf5780601f106101a4576101008083540402835291602001916101cf565b820191906000526020600020905b8154815290600101906020018083116101b257829003601f168201915b505050505081526020016001820180546101e890610866565b80601f016020809104026020016040519081016040528092919081815260200182805461021490610866565b80156102615780601f1061023657610100808354040283529160200191610261565b820191906000526020600020905b81548152906001019060200180831161024457829003601f168201915b50505091835250506002919091015460ff161515602090910152919050565b600054604051637163f89f60e11b8152839183916001600160a01b039091169063e2c7f13e906102b8903390869086906004016108a0565b602060405180830381865afa1580156102d5573d6000803e3d6000fd5b505050506040513d601f19601f820116820180604052508101906102f99190610902565b61031657604051639b3a19e960e01b815260040160405180910390fd5b336000908152600260205260409020600101610333868883610986565b50336001600160a01b03167fcac3663eb2024c6d25a728a4dbf48304e10a87ec79e5ce60f8bb3362cceabf78878760405161036f929190610a47565b60405180910390a2505050505050565b61038761053d565b6103916000610583565b565b61039b61053d565b3360009081526002602052604090206103b5828483610986565b506040516001600160a01b038416907ff06bd81cf6229b25b7e40cf4ed18c4390327a24a705767237e23721f685ef2a390600090a2505050565b600054604051637163f89f60e11b8152839183916001600160a01b039091169063e2c7f13e90610427903390869086906004016108a0565b602060405180830381865afa158015610444573d6000803e3d6000fd5b505050506040513d601f19601f820116820180604052508101906104689190610902565b61048557604051639b3a19e960e01b815260040160405180910390fd5b33600081815260026020818152604092839020909101805460ff191689151590811790915591519182527f9e355a529110cde9e1063e320ff1eccaac558c42f25f61edf76e32e7dfccfa4f910160405180910390a25050505050565b6104e961053d565b6001600160a01b038116610531576040517f1e4fbdf7000000000000000000000000000000000000000000000000000000008152600060048201526024015b60405180910390fd5b61053a81610583565b50565b6001546001600160a01b03163314610391576040517f118cdaa7000000000000000000000000000000000000000000000000000000008152336004820152602401610528565b600180546001600160a01b038381167fffffffffffffffffffffffff0000000000000000000000000000000000000000831681179093556040519116919082907f8be0079c531659141344cd1fd0a4f28419497f9722a3daafe3b4186f6b6457e090600090a35050565b6000815180845260005b81811015610613576020818501810151868301820152016105f7565b506000602082860101526020601f19601f83011685010191505092915050565b60208152600082516060602084015261064f60808401826105ed565b90506020840151601f1984830301604085015261066c82826105ed565b9150506040840151151560608401528091505092915050565b60008083601f84011261069757600080fd5b50813567ffffffffffffffff8111156106af57600080fd5b6020830191508360208285010111156106c757600080fd5b9250929050565b60008083601f8401126106e057600080fd5b50813567ffffffffffffffff8111156106f857600080fd5b6020830191508360208260051b85010111156106c757600080fd5b6000806000806040858703121561072957600080fd5b843567ffffffffffffffff8082111561074157600080fd5b61074d88838901610685565b9096509450602087013591508082111561076657600080fd5b50610773878288016106ce565b95989497509550505050565b80356001600160a01b038116811461079657600080fd5b919050565b6000806000604084860312156107b057600080fd5b6107b98461077f565b9250602084013567ffffffffffffffff8111156107d557600080fd5b6107e186828701610685565b9497909650939450505050565b801515811461053a57600080fd5b60008060006040848603121561081157600080fd5b833561081c816107ee565b9250602084013567ffffffffffffffff81111561083857600080fd5b6107e1868287016106ce565b60006020828403121561085657600080fd5b61085f8261077f565b9392505050565b600181811c9082168061087a57607f821691505b60208210810361089a57634e487b7160e01b600052602260045260246000fd5b50919050565b6001600160a01b03841681526040602082015281604082015260007f07ffffffffffffffffffffffffffffffffffffffffffffffffffffffffffffff8311156108e857600080fd5b8260051b8085606085013791909101606001949350505050565b60006020828403121561091457600080fd5b815161085f816107ee565b634e487b7160e01b600052604160045260246000fd5b601f821115610981576000816000526020600020601f850160051c8101602086101561095e5750805b601f850160051c820191505b8181101561097d5782815560010161096a565b5050505b505050565b67ffffffffffffffff83111561099e5761099e61091f565b6109b2836109ac8354610866565b83610935565b6000601f8411600181146109e657600085156109ce5750838201355b600019600387901b1c1916600186901b178355610a40565b600083815260209020601f19861690835b82811015610a1757868501358255602094850194600190920191016109f7565b5086821015610a345760001960f88860031b161c19848701351681555b505060018560011b0183555b5050505050565b60208152816020820152818360408301376000818301604090810191909152601f909201601f1916010191905056fea264697066735822122022ee1846f3e56b70f0b16cd4ceb3f830a7465fbfbc72aa45378293f11ac071c264736f6c63430008160033",
  "linkReferences": {},
  "deployedLinkReferences": {}
}