{
  "_format": "hh-sol-artifact-1",
  "contractName": "SocialNetWork",
  "sourceName": "contracts/SocialNetwork.sol",
  "abi": [
    {
      "inputs": [
        {
          "internalType": "address",
          "name": "_socialTokenAddress",
          "type": "address"
        }
      ],
      "stateMutability": "nonpayable",
      "type": "constructor"
    },
    {
      "inputs": [],
      "name": "AlreadyFollowed",
      "type": "error"
    },
    {
      "inputs": [],
      "name": "AlreadyLiked",
      "type": "error"
    },
    {
      "inputs": [],
      "name": "AlreadyPinned",
      "type": "error"
    },
    {
      "inputs": [],
      "name": "AlreadyUnfollowed",
      "type": "error"
    },
    {
      "inputs": [],
      "name": "AlreadyUnliked",
      "type": "error"
    },
    {
      "inputs": [],
      "name": "AlreadyUnpinned",
      "type": "error"
    },
    {
      "inputs": [],
      "name": "OnlyService",
      "type": "error"
    },
    {
      "inputs": [],
      "name": "OnlyUser",
      "type": "error"
    },
    {
      "anonymous": false,
      "inputs": [
        {
          "indexed": true,
          "internalType": "address",
          "name": "_author",
          "type": "address"
        },
        {
          "indexed": true,
          "internalType": "bytes32",
          "name": "_cid",
          "type": "bytes32"
        }
      ],
      "name": "ArticlePosted",
      "type": "event"
    },
    {
      "anonymous": false,
      "inputs": [
        {
          "indexed": true,
          "internalType": "address",
          "name": "_me",
          "type": "address"
        },
        {
          "indexed": false,
          "internalType": "address",
          "name": "_userFollow",
          "type": "address"
        }
      ],
      "name": "Followed",
      "type": "event"
    },
    {
      "anonymous": false,
      "inputs": [
        {
          "indexed": true,
          "internalType": "bytes32",
          "name": "_cid",
          "type": "bytes32"
        },
        {
          "indexed": true,
          "internalType": "address",
          "name": "_me",
          "type": "address"
        }
      ],
      "name": "Liked",
      "type": "event"
    },
    {
      "anonymous": false,
      "inputs": [
        {
          "indexed": true,
          "internalType": "bytes32",
          "name": "_cid",
          "type": "bytes32"
        },
        {
          "indexed": true,
          "internalType": "address",
          "name": "_me",
          "type": "address"
        }
      ],
      "name": "Pinned",
      "type": "event"
    },
    {
      "anonymous": false,
      "inputs": [
        {
          "indexed": true,
          "internalType": "address",
          "name": "_me",
          "type": "address"
        },
        {
          "indexed": false,
          "internalType": "address",
          "name": "_userFollow",
          "type": "address"
        }
      ],
      "name": "Unfollowed",
      "type": "event"
    },
    {
      "anonymous": false,
      "inputs": [
        {
          "indexed": true,
          "internalType": "bytes32",
          "name": "_cid",
          "type": "bytes32"
        },
        {
          "indexed": true,
          "internalType": "address",
          "name": "_me",
          "type": "address"
        }
      ],
      "name": "Unliked",
      "type": "event"
    },
    {
      "anonymous": false,
      "inputs": [
        {
          "indexed": true,
          "internalType": "bytes32",
          "name": "_cid",
          "type": "bytes32"
        },
        {
          "indexed": true,
          "internalType": "address",
          "name": "_me",
          "type": "address"
        }
      ],
      "name": "Unpinned",
      "type": "event"
    },
    {
      "inputs": [
        {
          "internalType": "address",
          "name": "_user",
          "type": "address"
        },
        {
          "internalType": "bytes32[]",
          "name": "_proof",
          "type": "bytes32[]"
        }
      ],
      "name": "follow",
      "outputs": [],
      "stateMutability": "nonpayable",
      "type": "function"
    },
    {
      "inputs": [
        {
          "internalType": "address",
          "name": "_user",
          "type": "address"
        },
        {
          "internalType": "bytes32[]",
          "name": "_proof",
          "type": "bytes32[]"
        }
      ],
      "name": "getLastArticleFrom",
      "outputs": [
        {
          "internalType": "bytes32",
          "name": "",
          "type": "bytes32"
        }
      ],
      "stateMutability": "view",
      "type": "function"
    },
    {
      "inputs": [],
      "name": "getMyLastArticle",
      "outputs": [
        {
          "internalType": "bytes32",
          "name": "",
          "type": "bytes32"
        }
      ],
      "stateMutability": "view",
      "type": "function"
    },
    {
      "inputs": [
        {
          "internalType": "address",
          "name": "_user",
          "type": "address"
        }
      ],
      "name": "isFollowed",
      "outputs": [
        {
          "internalType": "bool",
          "name": "",
          "type": "bool"
        }
      ],
      "stateMutability": "view",
      "type": "function"
    },
    {
      "inputs": [
        {
          "internalType": "bytes32",
          "name": "_cid",
          "type": "bytes32"
        }
      ],
      "name": "isPinned",
      "outputs": [
        {
          "internalType": "bool",
          "name": "",
          "type": "bool"
        }
      ],
      "stateMutability": "view",
      "type": "function"
    },
    {
      "inputs": [
        {
          "internalType": "bytes32",
          "name": "_cid",
          "type": "bytes32"
        },
        {
          "internalType": "bytes32[]",
          "name": "_proof",
          "type": "bytes32[]"
        }
      ],
      "name": "like",
      "outputs": [],
      "stateMutability": "nonpayable",
      "type": "function"
    },
    {
      "inputs": [
        {
          "internalType": "bytes32",
          "name": "",
          "type": "bytes32"
        }
      ],
      "name": "likes",
      "outputs": [
        {
          "internalType": "uint256",
          "name": "likes",
          "type": "uint256"
        }
      ],
      "stateMutability": "view",
      "type": "function"
    },
    {
      "inputs": [
        {
          "internalType": "bytes32",
          "name": "_cid",
          "type": "bytes32"
        },
        {
          "internalType": "bytes32[]",
          "name": "_proof",
          "type": "bytes32[]"
        }
      ],
      "name": "pin",
      "outputs": [],
      "stateMutability": "nonpayable",
      "type": "function"
    },
    {
      "inputs": [
        {
          "internalType": "bytes32",
          "name": "_cid",
          "type": "bytes32"
        },
        {
          "internalType": "bytes32[]",
          "name": "_proof",
          "type": "bytes32[]"
        }
      ],
      "name": "postArticle",
      "outputs": [],
      "stateMutability": "nonpayable",
      "type": "function"
    },
    {
      "inputs": [
        {
          "internalType": "address",
          "name": "_user",
          "type": "address"
        },
        {
          "internalType": "bytes32[]",
          "name": "_proof",
          "type": "bytes32[]"
        }
      ],
      "name": "unfollow",
      "outputs": [],
      "stateMutability": "nonpayable",
      "type": "function"
    },
    {
      "inputs": [
        {
          "internalType": "bytes32",
          "name": "_cid",
          "type": "bytes32"
        },
        {
          "internalType": "bytes32[]",
          "name": "_proof",
          "type": "bytes32[]"
        }
      ],
      "name": "unlike",
      "outputs": [],
      "stateMutability": "nonpayable",
      "type": "function"
    },
    {
      "inputs": [
        {
          "internalType": "bytes32",
          "name": "_cid",
          "type": "bytes32"
        },
        {
          "internalType": "bytes32[]",
          "name": "_proof",
          "type": "bytes32[]"
        }
      ],
      "name": "unpin",
      "outputs": [],
      "stateMutability": "nonpayable",
      "type": "function"
    }
  ],
  "bytecode": "0x608060405234801561001057600080fd5b506040516114b33803806114b383398101604081905261002f9161005b565b600080546001600160a01b039092166001600160a81b031990921691909117600160a01b17905561008b565b60006020828403121561006d57600080fd5b81516001600160a01b038116811461008457600080fd5b9392505050565b6114198061009a6000396000f3fe608060405234801561001057600080fd5b50600436106100d45760003560e01c8063b9cfb9ce11610081578063f2c1504f1161005b578063f2c1504f146101b7578063f842a7f9146101ca578063f94cac5c146101dd57600080fd5b8063b9cfb9ce14610162578063e230a12e14610181578063e506bef51461019457600080fd5b806365c1277d116100b257806365c1277d1461011457806378be30651461012757806384cb531a1461013a57600080fd5b806306847759146100d95780634c037e7b146100ee578063541f6ade14610101575b600080fd5b6100ec6100e7366004611214565b6101f0565b005b6100ec6100fc366004611214565b61032c565b6100ec61010f366004611214565b610461565b6100ec61012236600461127c565b610596565b6100ec610135366004611214565b6106cb565b61014d6101483660046112b6565b610800565b60405190151581526020015b60405180910390f35b336000908152600160205260409020545b604051908152602001610159565b61017361018f36600461127c565b61086e565b6101736101a23660046112d8565b60026020526000908152604090206001015481565b6100ec6101c5366004611214565b6109be565b61014d6101d83660046112d8565b610af3565b6100ec6101eb36600461127c565b610b45565b60005460405163ae88f77360e01b81526001600160a01b0382169163ae88f7739161022891600160a01b900460ff16906004016112f1565b602060405180830381865afa158015610245573d6000803e3d6000fd5b505050506040513d601f19601f820116820180604052508101906102699190611319565b610286576040516387d400b960e01b815260040160405180910390fd5b600054604051637163f89f60e11b8152839183916001600160a01b039091169063e2c7f13e906102be9033908690869060040161133b565b602060405180830381865afa1580156102db573d6000803e3d6000fd5b505050506040513d601f19601f820116820180604052508101906102ff9190611319565b61031c57604051639b3a19e960e01b815260040160405180910390fd5b61032585610c7a565b5050505050565b60005460405163ae88f77360e01b81526001600160a01b0382169163ae88f7739161036491600160a01b900460ff16906004016112f1565b602060405180830381865afa158015610381573d6000803e3d6000fd5b505050506040513d601f19601f820116820180604052508101906103a59190611319565b6103c2576040516387d400b960e01b815260040160405180910390fd5b600054604051637163f89f60e11b8152839183916001600160a01b039091169063e2c7f13e906103fa9033908690869060040161133b565b602060405180830381865afa158015610417573d6000803e3d6000fd5b505050506040513d601f19601f8201168201806040525081019061043b9190611319565b61045857604051639b3a19e960e01b815260040160405180910390fd5b61032585610d5e565b60005460405163ae88f77360e01b81526001600160a01b0382169163ae88f7739161049991600160a01b900460ff16906004016112f1565b602060405180830381865afa1580156104b6573d6000803e3d6000fd5b505050506040513d601f19601f820116820180604052508101906104da9190611319565b6104f7576040516387d400b960e01b815260040160405180910390fd5b600054604051637163f89f60e11b8152839183916001600160a01b039091169063e2c7f13e9061052f9033908690869060040161133b565b602060405180830381865afa15801561054c573d6000803e3d6000fd5b505050506040513d601f19601f820116820180604052508101906105709190611319565b61058d57604051639b3a19e960e01b815260040160405180910390fd5b61032585610d9b565b60005460405163ae88f77360e01b81526001600160a01b0382169163ae88f773916105ce91600160a01b900460ff16906004016112f1565b602060405180830381865afa1580156105eb573d6000803e3d6000fd5b505050506040513d601f19601f8201168201806040525081019061060f9190611319565b61062c576040516387d400b960e01b815260040160405180910390fd5b600054604051637163f89f60e11b8152839183916001600160a01b039091169063e2c7f13e906106649033908690869060040161133b565b602060405180830381865afa158015610681573d6000803e3d6000fd5b505050506040513d601f19601f820116820180604052508101906106a59190611319565b6106c257604051639b3a19e960e01b815260040160405180910390fd5b61032585610e5e565b60005460405163ae88f77360e01b81526001600160a01b0382169163ae88f7739161070391600160a01b900460ff16906004016112f1565b602060405180830381865afa158015610720573d6000803e3d6000fd5b505050506040513d601f19601f820116820180604052508101906107449190611319565b610761576040516387d400b960e01b815260040160405180910390fd5b600054604051637163f89f60e11b8152839183916001600160a01b039091169063e2c7f13e906107999033908690869060040161133b565b602060405180830381865afa1580156107b6573d6000803e3d6000fd5b505050506040513d601f19601f820116820180604052508101906107da9190611319565b6107f757604051639b3a19e960e01b815260040160405180910390fd5b61032585610f4a565b600060036000610854846040516bffffffffffffffffffffffff1933606090811b8216602084015283901b166034820152600090604801604051602081830303815290604052805190602001209050919050565b815260208101919091526040016000205460ff1692915050565b6000805460405163ae88f77360e01b81526001600160a01b0382169163ae88f773916108a791600160a01b900460ff16906004016112f1565b602060405180830381865afa1580156108c4573d6000803e3d6000fd5b505050506040513d601f19601f820116820180604052508101906108e89190611319565b610905576040516387d400b960e01b815260040160405180910390fd5b600054604051637163f89f60e11b8152849184916001600160a01b039091169063e2c7f13e9061093d9033908690869060040161133b565b602060405180830381865afa15801561095a573d6000803e3d6000fd5b505050506040513d601f19601f8201168201806040525081019061097e9190611319565b61099b57604051639b3a19e960e01b815260040160405180910390fd5b6001600160a01b0386166000908152600160205260409020549695505050505050565b60005460405163ae88f77360e01b81526001600160a01b0382169163ae88f773916109f691600160a01b900460ff16906004016112f1565b602060405180830381865afa158015610a13573d6000803e3d6000fd5b505050506040513d601f19601f82011682018060405250810190610a379190611319565b610a54576040516387d400b960e01b815260040160405180910390fd5b600054604051637163f89f60e11b8152839183916001600160a01b039091169063e2c7f13e90610a8c9033908690869060040161133b565b602060405180830381865afa158015610aa9573d6000803e3d6000fd5b505050506040513d601f19601f82011682018060405250810190610acd9190611319565b610aea57604051639b3a19e960e01b815260040160405180910390fd5b6103258561100f565b60006004600061085433856040516bffffffffffffffffffffffff19606084901b1660208201526034810182905260009060540160405160208183030381529060405280519060200120905092915050565b60005460405163ae88f77360e01b81526001600160a01b0382169163ae88f77391610b7d91600160a01b900460ff16906004016112f1565b602060405180830381865afa158015610b9a573d6000803e3d6000fd5b505050506040513d601f19601f82011682018060405250810190610bbe9190611319565b610bdb576040516387d400b960e01b815260040160405180910390fd5b600054604051637163f89f60e11b8152839183916001600160a01b039091169063e2c7f13e90610c139033908690869060040161133b565b602060405180830381865afa158015610c30573d6000803e3d6000fd5b505050506040513d601f19601f82011682018060405250810190610c549190611319565b610c7157604051639b3a19e960e01b815260040160405180910390fd5b610325856110d8565b80610c8481610af3565b15610cbb576040517f2877f77b00000000000000000000000000000000000000000000000000000000815260040160405180910390fd5b600160046000610d0d33866040516bffffffffffffffffffffffff19606084901b1660208201526034810182905260009060540160405160208183030381529060405280519060200120905092915050565b8152602081019190915260409081016000908120805460ff19169315159390931790925551339184917f0906f7e0f070699d64433e9f3259a964fa67fc7c4cf258f579ce408d5143228b9190a35050565b33600081815260016020526040808220849055518392917fd59f80e0dd5a6f38729b326e0cdc8b14c1f4e85ab0c642784be1f6dc03491ac891a350565b6000818152600260209081526040808320338452909152902054819060ff16610df0576040517fa5d132f700000000000000000000000000000000000000000000000000000000815260040160405180910390fd5b6000828152600260208181526040808420338552808352908420805460ff191690558584529190526001018054909190610e29906113b3565b90915550604051339083907f31e90b8de89e15dee9a636ce1ac812809a8416fd6f009d65ec068a91fa7a5bbc90600090a35050565b80610e6881610800565b610e9e576040517f60aacb1700000000000000000000000000000000000000000000000000000000815260040160405180910390fd5b60036000610ef0846040516bffffffffffffffffffffffff1933606090811b8216602084015283901b166034820152600090604801604051602081830303815290604052805190602001209050919050565b81526020808201929092526040908101600020805460ff19169055516001600160a01b038416815233917f25b48012798806863072289354ed0b3849b73152482d9c6694e5cbb35f38d5e391015b60405180910390a25050565b80610f5481610af3565b610f8a576040517fe68cf57d00000000000000000000000000000000000000000000000000000000815260040160405180910390fd5b6040805133606081901b6bffffffffffffffffffffffff1916602080840191909152603480840187905284518085039091018152605490930180855283519382019390932060009081526004909152928320805460ff191690559184917f1c2ffe66a540aaa393f91ea761ec63a003f19b97edfd1c7705cb455a695d8ea19190a35050565b6000818152600260209081526040808320338452909152902054819060ff1615611065576040517f22aba90d00000000000000000000000000000000000000000000000000000000815260040160405180910390fd5b6000828152600260208181526040808420338552808352908420805460ff19166001908117909155868552929091520180549091906110a3906113ca565b90915550604051339083907f5dfc37bd4eb2a27e5ca58365a961dd4dc9a071a49837c9c4ecdb7013cfc1453490600090a35050565b806110e281610800565b15611119576040517f76f1b26800000000000000000000000000000000000000000000000000000000815260040160405180910390fd5b60016003600061116d856040516bffffffffffffffffffffffff1933606090811b8216602084015283901b166034820152600090604801604051602081830303815290604052805190602001209050919050565b81526020808201929092526040908101600020805460ff19169315159390931790925590516001600160a01b038416815233917f6178e95c138f06036cdc07a49ed6a3d23008969fa143baeceb037ebae22e8d149101610f3e565b60008083601f8401126111da57600080fd5b50813567ffffffffffffffff8111156111f257600080fd5b6020830191508360208260051b850101111561120d57600080fd5b9250929050565b60008060006040848603121561122957600080fd5b83359250602084013567ffffffffffffffff81111561124757600080fd5b611253868287016111c8565b9497909650939450505050565b80356001600160a01b038116811461127757600080fd5b919050565b60008060006040848603121561129157600080fd5b61129a84611260565b9250602084013567ffffffffffffffff81111561124757600080fd5b6000602082840312156112c857600080fd5b6112d182611260565b9392505050565b6000602082840312156112ea57600080fd5b5035919050565b602081016004831061131357634e487b7160e01b600052602160045260246000fd5b91905290565b60006020828403121561132b57600080fd5b815180151581146112d157600080fd5b6001600160a01b03841681526040602082015281604082015260007f07ffffffffffffffffffffffffffffffffffffffffffffffffffffffffffffff83111561138357600080fd5b8260051b8085606085013791909101606001949350505050565b634e487b7160e01b600052601160045260246000fd5b6000816113c2576113c261139d565b506000190190565b6000600182016113dc576113dc61139d565b506001019056fea26469706673582212209e40dbcd93d791807d9186849031df7f4ee4b0509fb118a3e8608ad132c1f40a64736f6c63430008160033",
  "linkReferences": {},
  "deployedLinkReferences": {}
}